{
	"data": {
		"bytecode": {
			"linkReferences": {},
			"object": "6080604052348015600e575f5ffd5b506107f18061001c5f395ff3fe608060405234801561000f575f5ffd5b506004361061003f575f3560e01c80633206b2c61461004357806388702ee91461006f578063a273079a14610082575b5f5ffd5b610056610051366004610478565b610097565b60405161006694939291906104bd565b60405180910390f35b61005661007d366004610478565b61022b565b6100956100903660046105a1565b61037f565b005b60605f5f60605f5f86815481106100b0576100b0610606565b905f5260205f2090600402016040518060800160405290815f820180546100d69061061a565b80601f01602080910402602001604051908101604052809291908181526020018280546101029061061a565b801561014d5780601f106101245761010080835404028352916020019161014d565b820191905f5260205f20905b81548152906001019060200180831161013057829003601f168201915b505050918352505060018201546001600160a01b03166020820152600282015460408201526003820180546060909201916101879061061a565b80601f01602080910402602001604051908101604052809291908181526020018280546101b39061061a565b80156101fe5780601f106101d5576101008083540402835291602001916101fe565b820191905f5260205f20905b8154815290600101906020018083116101e157829003601f168201915b505050919092525050815160208301516040840151606090940151919a9099509297509550909350505050565b5f8181548110610239575f80fd5b905f5260205f2090600402015f91509050805f0180546102589061061a565b80601f01602080910402602001604051908101604052809291908181526020018280546102849061061a565b80156102cf5780601f106102a6576101008083540402835291602001916102cf565b820191905f5260205f20905b8154815290600101906020018083116102b257829003601f168201915b505050506001830154600284015460038501805494956001600160a01b0390931694919350906102fe9061061a565b80601f016020809104026020016040519081016040528092919081815260200182805461032a9061061a565b80156103755780601f1061034c57610100808354040283529160200191610375565b820191905f5260205f20905b81548152906001019060200180831161035857829003601f168201915b5050505050905084565b604080516080810182528381523360208201524291810191909152606081018290525f8054600181018255908052815160049091027f290decd9548b62a8d60345a988386fc84ba6bc95484008f6362f93160ef3e563019081906103e3908261069e565b5060208201516001820180546001600160a01b0319166001600160a01b039092169190911790556040820151600282015560608201516003820190610428908261069e565b50505f546104399150600190610759565b7f3b803c1c440f8884cc716057f47203dbaf4372ccb47619c0041b7e2584a8bd6e83338460405161046c9392919061077e565b60405180910390a25050565b5f60208284031215610488575f5ffd5b5035919050565b5f81518084528060208401602086015e5f602082860101526020601f19601f83011685010191505092915050565b608081525f6104cf608083018761048f565b6001600160a01b03861660208401526040830185905282810360608401526104f7818561048f565b979650505050505050565b634e487b7160e01b5f52604160045260245ffd5b5f82601f830112610525575f5ffd5b813567ffffffffffffffff81111561053f5761053f610502565b604051601f8201601f19908116603f0116810167ffffffffffffffff8111828210171561056e5761056e610502565b604052818152838201602001851015610585575f5ffd5b816020850160208301375f918101602001919091529392505050565b5f5f604083850312156105b2575f5ffd5b823567ffffffffffffffff8111156105c8575f5ffd5b6105d485828601610516565b925050602083013567ffffffffffffffff8111156105f0575f5ffd5b6105fc85828601610516565b9150509250929050565b634e487b7160e01b5f52603260045260245ffd5b600181811c9082168061062e57607f821691505b60208210810361064c57634e487b7160e01b5f52602260045260245ffd5b50919050565b601f82111561069957805f5260205f20601f840160051c810160208510156106775750805b601f840160051c820191505b81811015610696575f8155600101610683565b50505b505050565b815167ffffffffffffffff8111156106b8576106b8610502565b6106cc816106c6845461061a565b84610652565b6020601f8211600181146106fe575f83156106e75750848201515b5f19600385901b1c1916600184901b178455610696565b5f84815260208120601f198516915b8281101561072d578785015182556020948501946001909201910161070d565b508482101561074a57868401515f19600387901b60f8161c191681555b50505050600190811b01905550565b8181038181111561077857634e487b7160e01b5f52601160045260245ffd5b92915050565b606081525f610790606083018661048f565b6001600160a01b038516602084015282810360408401526107b1818561048f565b969550505050505056fea26469706673582212205b347b9a9d0547c6a92bfca9b16d94019b4c50e0480a19e3a54e72206dae525164736f6c634300081d0033",
			"opcodes": "PUSH1 0x80 PUSH1 0x40 MSTORE CALLVALUE DUP1 ISZERO PUSH1 0xE JUMPI PUSH0 PUSH0 REVERT JUMPDEST POP PUSH2 0x7F1 DUP1 PUSH2 0x1C PUSH0 CODECOPY PUSH0 RETURN INVALID PUSH1 0x80 PUSH1 0x40 MSTORE CALLVALUE DUP1 ISZERO PUSH2 0xF JUMPI PUSH0 PUSH0 REVERT JUMPDEST POP PUSH1 0x4 CALLDATASIZE LT PUSH2 0x3F JUMPI PUSH0 CALLDATALOAD PUSH1 0xE0 SHR DUP1 PUSH4 0x3206B2C6 EQ PUSH2 0x43 JUMPI DUP1 PUSH4 0x88702EE9 EQ PUSH2 0x6F JUMPI DUP1 PUSH4 0xA273079A EQ PUSH2 0x82 JUMPI JUMPDEST PUSH0 PUSH0 REVERT JUMPDEST PUSH2 0x56 PUSH2 0x51 CALLDATASIZE PUSH1 0x4 PUSH2 0x478 JUMP JUMPDEST PUSH2 0x97 JUMP JUMPDEST PUSH1 0x40 MLOAD PUSH2 0x66 SWAP5 SWAP4 SWAP3 SWAP2 SWAP1 PUSH2 0x4BD JUMP JUMPDEST PUSH1 0x40 MLOAD DUP1 SWAP2 SUB SWAP1 RETURN JUMPDEST PUSH2 0x56 PUSH2 0x7D CALLDATASIZE PUSH1 0x4 PUSH2 0x478 JUMP JUMPDEST PUSH2 0x22B JUMP JUMPDEST PUSH2 0x95 PUSH2 0x90 CALLDATASIZE PUSH1 0x4 PUSH2 0x5A1 JUMP JUMPDEST PUSH2 0x37F JUMP JUMPDEST STOP JUMPDEST PUSH1 0x60 PUSH0 PUSH0 PUSH1 0x60 PUSH0 PUSH0 DUP7 DUP2 SLOAD DUP2 LT PUSH2 0xB0 JUMPI PUSH2 0xB0 PUSH2 0x606 JUMP JUMPDEST SWAP1 PUSH0 MSTORE PUSH1 0x20 PUSH0 KECCAK256 SWAP1 PUSH1 0x4 MUL ADD PUSH1 0x40 MLOAD DUP1 PUSH1 0x80 ADD PUSH1 0x40 MSTORE SWAP1 DUP2 PUSH0 DUP3 ADD DUP1 SLOAD PUSH2 0xD6 SWAP1 PUSH2 0x61A JUMP JUMPDEST DUP1 PUSH1 0x1F ADD PUSH1 0x20 DUP1 SWAP2 DIV MUL PUSH1 0x20 ADD PUSH1 0x40 MLOAD SWAP1 DUP2 ADD PUSH1 0x40 MSTORE DUP1 SWAP3 SWAP2 SWAP1 DUP2 DUP2 MSTORE PUSH1 0x20 ADD DUP3 DUP1 SLOAD PUSH2 0x102 SWAP1 PUSH2 0x61A JUMP JUMPDEST DUP1 ISZERO PUSH2 0x14D JUMPI DUP1 PUSH1 0x1F LT PUSH2 0x124 JUMPI PUSH2 0x100 DUP1 DUP4 SLOAD DIV MUL DUP4 MSTORE SWAP2 PUSH1 0x20 ADD SWAP2 PUSH2 0x14D JUMP JUMPDEST DUP3 ADD SWAP2 SWAP1 PUSH0 MSTORE PUSH1 0x20 PUSH0 KECCAK256 SWAP1 JUMPDEST DUP2 SLOAD DUP2 MSTORE SWAP1 PUSH1 0x1 ADD SWAP1 PUSH1 0x20 ADD DUP1 DUP4 GT PUSH2 0x130 JUMPI DUP3 SWAP1 SUB PUSH1 0x1F AND DUP3 ADD SWAP2 JUMPDEST POP POP POP SWAP2 DUP4 MSTORE POP POP PUSH1 0x1 DUP3 ADD SLOAD PUSH1 0x1 PUSH1 0x1 PUSH1 0xA0 SHL SUB AND PUSH1 0x20 DUP3 ADD MSTORE PUSH1 0x2 DUP3 ADD SLOAD PUSH1 0x40 DUP3 ADD MSTORE PUSH1 0x3 DUP3 ADD DUP1 SLOAD PUSH1 0x60 SWAP1 SWAP3 ADD SWAP2 PUSH2 0x187 SWAP1 PUSH2 0x61A JUMP JUMPDEST DUP1 PUSH1 0x1F ADD PUSH1 0x20 DUP1 SWAP2 DIV MUL PUSH1 0x20 ADD PUSH1 0x40 MLOAD SWAP1 DUP2 ADD PUSH1 0x40 MSTORE DUP1 SWAP3 SWAP2 SWAP1 DUP2 DUP2 MSTORE PUSH1 0x20 ADD DUP3 DUP1 SLOAD PUSH2 0x1B3 SWAP1 PUSH2 0x61A JUMP JUMPDEST DUP1 ISZERO PUSH2 0x1FE JUMPI DUP1 PUSH1 0x1F LT PUSH2 0x1D5 JUMPI PUSH2 0x100 DUP1 DUP4 SLOAD DIV MUL DUP4 MSTORE SWAP2 PUSH1 0x20 ADD SWAP2 PUSH2 0x1FE JUMP JUMPDEST DUP3 ADD SWAP2 SWAP1 PUSH0 MSTORE PUSH1 0x20 PUSH0 KECCAK256 SWAP1 JUMPDEST DUP2 SLOAD DUP2 MSTORE SWAP1 PUSH1 0x1 ADD SWAP1 PUSH1 0x20 ADD DUP1 DUP4 GT PUSH2 0x1E1 JUMPI DUP3 SWAP1 SUB PUSH1 0x1F AND DUP3 ADD SWAP2 JUMPDEST POP POP POP SWAP2 SWAP1 SWAP3 MSTORE POP POP DUP2 MLOAD PUSH1 0x20 DUP4 ADD MLOAD PUSH1 0x40 DUP5 ADD MLOAD PUSH1 0x60 SWAP1 SWAP5 ADD MLOAD SWAP2 SWAP11 SWAP1 SWAP10 POP SWAP3 SWAP8 POP SWAP6 POP SWAP1 SWAP4 POP POP POP POP JUMP JUMPDEST PUSH0 DUP2 DUP2 SLOAD DUP2 LT PUSH2 0x239 JUMPI PUSH0 DUP1 REVERT JUMPDEST SWAP1 PUSH0 MSTORE PUSH1 0x20 PUSH0 KECCAK256 SWAP1 PUSH1 0x4 MUL ADD PUSH0 SWAP2 POP SWAP1 POP DUP1 PUSH0 ADD DUP1 SLOAD PUSH2 0x258 SWAP1 PUSH2 0x61A JUMP JUMPDEST DUP1 PUSH1 0x1F ADD PUSH1 0x20 DUP1 SWAP2 DIV MUL PUSH1 0x20 ADD PUSH1 0x40 MLOAD SWAP1 DUP2 ADD PUSH1 0x40 MSTORE DUP1 SWAP3 SWAP2 SWAP1 DUP2 DUP2 MSTORE PUSH1 0x20 ADD DUP3 DUP1 SLOAD PUSH2 0x284 SWAP1 PUSH2 0x61A JUMP JUMPDEST DUP1 ISZERO PUSH2 0x2CF JUMPI DUP1 PUSH1 0x1F LT PUSH2 0x2A6 JUMPI PUSH2 0x100 DUP1 DUP4 SLOAD DIV MUL DUP4 MSTORE SWAP2 PUSH1 0x20 ADD SWAP2 PUSH2 0x2CF JUMP JUMPDEST DUP3 ADD SWAP2 SWAP1 PUSH0 MSTORE PUSH1 0x20 PUSH0 KECCAK256 SWAP1 JUMPDEST DUP2 SLOAD DUP2 MSTORE SWAP1 PUSH1 0x1 ADD SWAP1 PUSH1 0x20 ADD DUP1 DUP4 GT PUSH2 0x2B2 JUMPI DUP3 SWAP1 SUB PUSH1 0x1F AND DUP3 ADD SWAP2 JUMPDEST POP POP POP POP PUSH1 0x1 DUP4 ADD SLOAD PUSH1 0x2 DUP5 ADD SLOAD PUSH1 0x3 DUP6 ADD DUP1 SLOAD SWAP5 SWAP6 PUSH1 0x1 PUSH1 0x1 PUSH1 0xA0 SHL SUB SWAP1 SWAP4 AND SWAP5 SWAP2 SWAP4 POP SWAP1 PUSH2 0x2FE SWAP1 PUSH2 0x61A JUMP JUMPDEST DUP1 PUSH1 0x1F ADD PUSH1 0x20 DUP1 SWAP2 DIV MUL PUSH1 0x20 ADD PUSH1 0x40 MLOAD SWAP1 DUP2 ADD PUSH1 0x40 MSTORE DUP1 SWAP3 SWAP2 SWAP1 DUP2 DUP2 MSTORE PUSH1 0x20 ADD DUP3 DUP1 SLOAD PUSH2 0x32A SWAP1 PUSH2 0x61A JUMP JUMPDEST DUP1 ISZERO PUSH2 0x375 JUMPI DUP1 PUSH1 0x1F LT PUSH2 0x34C JUMPI PUSH2 0x100 DUP1 DUP4 SLOAD DIV MUL DUP4 MSTORE SWAP2 PUSH1 0x20 ADD SWAP2 PUSH2 0x375 JUMP JUMPDEST DUP3 ADD SWAP2 SWAP1 PUSH0 MSTORE PUSH1 0x20 PUSH0 KECCAK256 SWAP1 JUMPDEST DUP2 SLOAD DUP2 MSTORE SWAP1 PUSH1 0x1 ADD SWAP1 PUSH1 0x20 ADD DUP1 DUP4 GT PUSH2 0x358 JUMPI DUP3 SWAP1 SUB PUSH1 0x1F AND DUP3 ADD SWAP2 JUMPDEST POP POP POP POP POP SWAP1 POP DUP5 JUMP JUMPDEST PUSH1 0x40 DUP1 MLOAD PUSH1 0x80 DUP2 ADD DUP3 MSTORE DUP4 DUP2 MSTORE CALLER PUSH1 0x20 DUP3 ADD MSTORE TIMESTAMP SWAP2 DUP2 ADD SWAP2 SWAP1 SWAP2 MSTORE PUSH1 0x60 DUP2 ADD DUP3 SWAP1 MSTORE PUSH0 DUP1 SLOAD PUSH1 0x1 DUP2 ADD DUP3 SSTORE SWAP1 DUP1 MSTORE DUP2 MLOAD PUSH1 0x4 SWAP1 SWAP2 MUL PUSH32 0x290DECD9548B62A8D60345A988386FC84BA6BC95484008F6362F93160EF3E563 ADD SWAP1 DUP2 SWAP1 PUSH2 0x3E3 SWAP1 DUP3 PUSH2 0x69E JUMP JUMPDEST POP PUSH1 0x20 DUP3 ADD MLOAD PUSH1 0x1 DUP3 ADD DUP1 SLOAD PUSH1 0x1 PUSH1 0x1 PUSH1 0xA0 SHL SUB NOT AND PUSH1 0x1 PUSH1 0x1 PUSH1 0xA0 SHL SUB SWAP1 SWAP3 AND SWAP2 SWAP1 SWAP2 OR SWAP1 SSTORE PUSH1 0x40 DUP3 ADD MLOAD PUSH1 0x2 DUP3 ADD SSTORE PUSH1 0x60 DUP3 ADD MLOAD PUSH1 0x3 DUP3 ADD SWAP1 PUSH2 0x428 SWAP1 DUP3 PUSH2 0x69E JUMP JUMPDEST POP POP PUSH0 SLOAD PUSH2 0x439 SWAP2 POP PUSH1 0x1 SWAP1 PUSH2 0x759 JUMP JUMPDEST PUSH32 0x3B803C1C440F8884CC716057F47203DBAF4372CCB47619C0041B7E2584A8BD6E DUP4 CALLER DUP5 PUSH1 0x40 MLOAD PUSH2 0x46C SWAP4 SWAP3 SWAP2 SWAP1 PUSH2 0x77E JUMP JUMPDEST PUSH1 0x40 MLOAD DUP1 SWAP2 SUB SWAP1 LOG2 POP POP JUMP JUMPDEST PUSH0 PUSH1 0x20 DUP3 DUP5 SUB SLT ISZERO PUSH2 0x488 JUMPI PUSH0 PUSH0 REVERT JUMPDEST POP CALLDATALOAD SWAP2 SWAP1 POP JUMP JUMPDEST PUSH0 DUP2 MLOAD DUP1 DUP5 MSTORE DUP1 PUSH1 0x20 DUP5 ADD PUSH1 0x20 DUP7 ADD MCOPY PUSH0 PUSH1 0x20 DUP3 DUP7 ADD ADD MSTORE PUSH1 0x20 PUSH1 0x1F NOT PUSH1 0x1F DUP4 ADD AND DUP6 ADD ADD SWAP2 POP POP SWAP3 SWAP2 POP POP JUMP JUMPDEST PUSH1 0x80 DUP2 MSTORE PUSH0 PUSH2 0x4CF PUSH1 0x80 DUP4 ADD DUP8 PUSH2 0x48F JUMP JUMPDEST PUSH1 0x1 PUSH1 0x1 PUSH1 0xA0 SHL SUB DUP7 AND PUSH1 0x20 DUP5 ADD MSTORE PUSH1 0x40 DUP4 ADD DUP6 SWAP1 MSTORE DUP3 DUP2 SUB PUSH1 0x60 DUP5 ADD MSTORE PUSH2 0x4F7 DUP2 DUP6 PUSH2 0x48F JUMP JUMPDEST SWAP8 SWAP7 POP POP POP POP POP POP POP JUMP JUMPDEST PUSH4 0x4E487B71 PUSH1 0xE0 SHL PUSH0 MSTORE PUSH1 0x41 PUSH1 0x4 MSTORE PUSH1 0x24 PUSH0 REVERT JUMPDEST PUSH0 DUP3 PUSH1 0x1F DUP4 ADD SLT PUSH2 0x525 JUMPI PUSH0 PUSH0 REVERT JUMPDEST DUP2 CALLDATALOAD PUSH8 0xFFFFFFFFFFFFFFFF DUP2 GT ISZERO PUSH2 0x53F JUMPI PUSH2 0x53F PUSH2 0x502 JUMP JUMPDEST PUSH1 0x40 MLOAD PUSH1 0x1F DUP3 ADD PUSH1 0x1F NOT SWAP1 DUP2 AND PUSH1 0x3F ADD AND DUP2 ADD PUSH8 0xFFFFFFFFFFFFFFFF DUP2 GT DUP3 DUP3 LT OR ISZERO PUSH2 0x56E JUMPI PUSH2 0x56E PUSH2 0x502 JUMP JUMPDEST PUSH1 0x40 MSTORE DUP2 DUP2 MSTORE DUP4 DUP3 ADD PUSH1 0x20 ADD DUP6 LT ISZERO PUSH2 0x585 JUMPI PUSH0 PUSH0 REVERT JUMPDEST DUP2 PUSH1 0x20 DUP6 ADD PUSH1 0x20 DUP4 ADD CALLDATACOPY PUSH0 SWAP2 DUP2 ADD PUSH1 0x20 ADD SWAP2 SWAP1 SWAP2 MSTORE SWAP4 SWAP3 POP POP POP JUMP JUMPDEST PUSH0 PUSH0 PUSH1 0x40 DUP4 DUP6 SUB SLT ISZERO PUSH2 0x5B2 JUMPI PUSH0 PUSH0 REVERT JUMPDEST DUP3 CALLDATALOAD PUSH8 0xFFFFFFFFFFFFFFFF DUP2 GT ISZERO PUSH2 0x5C8 JUMPI PUSH0 PUSH0 REVERT JUMPDEST PUSH2 0x5D4 DUP6 DUP3 DUP7 ADD PUSH2 0x516 JUMP JUMPDEST SWAP3 POP POP PUSH1 0x20 DUP4 ADD CALLDATALOAD PUSH8 0xFFFFFFFFFFFFFFFF DUP2 GT ISZERO PUSH2 0x5F0 JUMPI PUSH0 PUSH0 REVERT JUMPDEST PUSH2 0x5FC DUP6 DUP3 DUP7 ADD PUSH2 0x516 JUMP JUMPDEST SWAP2 POP POP SWAP3 POP SWAP3 SWAP1 POP JUMP JUMPDEST PUSH4 0x4E487B71 PUSH1 0xE0 SHL PUSH0 MSTORE PUSH1 0x32 PUSH1 0x4 MSTORE PUSH1 0x24 PUSH0 REVERT JUMPDEST PUSH1 0x1 DUP2 DUP2 SHR SWAP1 DUP3 AND DUP1 PUSH2 0x62E JUMPI PUSH1 0x7F DUP3 AND SWAP2 POP JUMPDEST PUSH1 0x20 DUP3 LT DUP2 SUB PUSH2 0x64C JUMPI PUSH4 0x4E487B71 PUSH1 0xE0 SHL PUSH0 MSTORE PUSH1 0x22 PUSH1 0x4 MSTORE PUSH1 0x24 PUSH0 REVERT JUMPDEST POP SWAP2 SWAP1 POP JUMP JUMPDEST PUSH1 0x1F DUP3 GT ISZERO PUSH2 0x699 JUMPI DUP1 PUSH0 MSTORE PUSH1 0x20 PUSH0 KECCAK256 PUSH1 0x1F DUP5 ADD PUSH1 0x5 SHR DUP2 ADD PUSH1 0x20 DUP6 LT ISZERO PUSH2 0x677 JUMPI POP DUP1 JUMPDEST PUSH1 0x1F DUP5 ADD PUSH1 0x5 SHR DUP3 ADD SWAP2 POP JUMPDEST DUP2 DUP2 LT ISZERO PUSH2 0x696 JUMPI PUSH0 DUP2 SSTORE PUSH1 0x1 ADD PUSH2 0x683 JUMP JUMPDEST POP POP JUMPDEST POP POP POP JUMP JUMPDEST DUP2 MLOAD PUSH8 0xFFFFFFFFFFFFFFFF DUP2 GT ISZERO PUSH2 0x6B8 JUMPI PUSH2 0x6B8 PUSH2 0x502 JUMP JUMPDEST PUSH2 0x6CC DUP2 PUSH2 0x6C6 DUP5 SLOAD PUSH2 0x61A JUMP JUMPDEST DUP5 PUSH2 0x652 JUMP JUMPDEST PUSH1 0x20 PUSH1 0x1F DUP3 GT PUSH1 0x1 DUP2 EQ PUSH2 0x6FE JUMPI PUSH0 DUP4 ISZERO PUSH2 0x6E7 JUMPI POP DUP5 DUP3 ADD MLOAD JUMPDEST PUSH0 NOT PUSH1 0x3 DUP6 SWAP1 SHL SHR NOT AND PUSH1 0x1 DUP5 SWAP1 SHL OR DUP5 SSTORE PUSH2 0x696 JUMP JUMPDEST PUSH0 DUP5 DUP2 MSTORE PUSH1 0x20 DUP2 KECCAK256 PUSH1 0x1F NOT DUP6 AND SWAP2 JUMPDEST DUP3 DUP2 LT ISZERO PUSH2 0x72D JUMPI DUP8 DUP6 ADD MLOAD DUP3 SSTORE PUSH1 0x20 SWAP5 DUP6 ADD SWAP5 PUSH1 0x1 SWAP1 SWAP3 ADD SWAP2 ADD PUSH2 0x70D JUMP JUMPDEST POP DUP5 DUP3 LT ISZERO PUSH2 0x74A JUMPI DUP7 DUP5 ADD MLOAD PUSH0 NOT PUSH1 0x3 DUP8 SWAP1 SHL PUSH1 0xF8 AND SHR NOT AND DUP2 SSTORE JUMPDEST POP POP POP POP PUSH1 0x1 SWAP1 DUP2 SHL ADD SWAP1 SSTORE POP JUMP JUMPDEST DUP2 DUP2 SUB DUP2 DUP2 GT ISZERO PUSH2 0x778 JUMPI PUSH4 0x4E487B71 PUSH1 0xE0 SHL PUSH0 MSTORE PUSH1 0x11 PUSH1 0x4 MSTORE PUSH1 0x24 PUSH0 REVERT JUMPDEST SWAP3 SWAP2 POP POP JUMP JUMPDEST PUSH1 0x60 DUP2 MSTORE PUSH0 PUSH2 0x790 PUSH1 0x60 DUP4 ADD DUP7 PUSH2 0x48F JUMP JUMPDEST PUSH1 0x1 PUSH1 0x1 PUSH1 0xA0 SHL SUB DUP6 AND PUSH1 0x20 DUP5 ADD MSTORE DUP3 DUP2 SUB PUSH1 0x40 DUP5 ADD MSTORE PUSH2 0x7B1 DUP2 DUP6 PUSH2 0x48F JUMP JUMPDEST SWAP7 SWAP6 POP POP POP POP POP POP JUMP INVALID LOG2 PUSH5 0x6970667358 0x22 SLT KECCAK256 JUMPDEST CALLVALUE PUSH28 0x9A9D0547C6A92BFCA9B16D94019B4C50E0480A19E3A54E72206DAE52 MLOAD PUSH5 0x736F6C6343 STOP ADDMOD SAR STOP CALLER "
		},
		"gasEstimates": {
			"creation": {
				"codeDepositCost": "406600",
				"executionCost": "441",
				"totalCost": "407041"
			},
			"external": {
				"addLog(string,string)": "infinite",
				"getLog(uint256)": "infinite",
				"logEntries(uint256)": "infinite"
			}
		},
		"methodIdentifiers": {
			"addLog(string,string)": "a273079a",
			"getLog(uint256)": "3206b2c6",
			"logEntries(uint256)": "88702ee9"
		}
	},
	"abi": [
		{
			"anonymous": false,
			"inputs": [
				{
					"indexed": true,
					"internalType": "uint256",
					"name": "logId",
					"type": "uint256"
				},
				{
					"indexed": false,
					"internalType": "string",
					"name": "action",
					"type": "string"
				},
				{
					"indexed": false,
					"internalType": "address",
					"name": "actor",
					"type": "address"
				},
				{
					"indexed": false,
					"internalType": "string",
					"name": "details",
					"type": "string"
				}
			],
			"name": "LogAdded",
			"type": "event"
		},
		{
			"inputs": [
				{
					"internalType": "string",
					"name": "_action",
					"type": "string"
				},
				{
					"internalType": "string",
					"name": "_details",
					"type": "string"
				}
			],
			"name": "addLog",
			"outputs": [],
			"stateMutability": "nonpayable",
			"type": "function"
		},
		{
			"inputs": [
				{
					"internalType": "uint256",
					"name": "_logId",
					"type": "uint256"
				}
			],
			"name": "getLog",
			"outputs": [
				{
					"internalType": "string",
					"name": "action",
					"type": "string"
				},
				{
					"internalType": "address",
					"name": "actor",
					"type": "address"
				},
				{
					"internalType": "uint256",
					"name": "timestamp",
					"type": "uint256"
				},
				{
					"internalType": "string",
					"name": "details",
					"type": "string"
				}
			],
			"stateMutability": "view",
			"type": "function"
		},
		{
			"inputs": [
				{
					"internalType": "uint256",
					"name": "",
					"type": "uint256"
				}
			],
			"name": "logEntries",
			"outputs": [
				{
					"internalType": "string",
					"name": "action",
					"type": "string"
				},
				{
					"internalType": "address",
					"name": "actor",
					"type": "address"
				},
				{
					"internalType": "uint256",
					"name": "timestamp",
					"type": "uint256"
				},
				{
					"internalType": "string",
					"name": "details",
					"type": "string"
				}
			],
			"stateMutability": "view",
			"type": "function"
		}
	]
}