{
	"data": {
		"bytecode": {
			"linkReferences": {},
			"object": "6080604052348015600e575f5ffd5b506109168061001c5f395ff3fe608060405234801561000f575f5ffd5b5060043610610055575f3560e01c80630b7ad54c146100595780633ad3d54814610086578063b5ecf9121461009b578063cc459696146100ae578063f2d0811f146100c5575b5f5ffd5b61006c6100673660046105aa565b6100d8565b60405161007d9594939291906105ef565b60405180910390f35b6100996100943660046106db565b610276565b005b61006c6100a93660046105aa565b610371565b6100b760015481565b60405190815260200161007d565b6100996100d33660046105aa565b6104b9565b6060805f5f5f5f5f5f8881526020019081526020015f206040518060a00160405290815f8201805461010990610740565b80601f016020809104026020016040519081016040528092919081815260200182805461013590610740565b80156101805780601f1061015757610100808354040283529160200191610180565b820191905f5260205f20905b81548152906001019060200180831161016357829003601f168201915b5050505050815260200160018201805461019990610740565b80601f01602080910402602001604051908101604052809291908181526020018280546101c590610740565b80156102105780601f106101e757610100808354040283529160200191610210565b820191905f5260205f20905b8154815290600101906020018083116101f357829003601f168201915b505050918352505060028201546001600160a01b0316602080830191909152600383015460408084019190915260049093015460ff1615156060928301528351908401519284015191840151608090940151909b929a5090985091965090945092505050565b60018054905f61028583610778565b90915550506040805160a08101825283815260208082018490523382840152426060830152600160808301819052545f9081529081905291909120815181906102ce90826107e8565b50602082015160018201906102e390826107e8565b506040828101516002830180546001600160a01b0319166001600160a01b03909216919091179055606083015160038301556080909201516004909101805460ff191691151591909117905560015490517feb77a4650a4baf709b6414844de41286b19e7cba2d0ada625806139e85d3bbde90610365908590859033906108a3565b60405180910390a25050565b5f6020819052908152604090208054819061038b90610740565b80601f01602080910402602001604051908101604052809291908181526020018280546103b790610740565b80156104025780601f106103d957610100808354040283529160200191610402565b820191905f5260205f20905b8154815290600101906020018083116103e557829003601f168201915b50505050509080600101805461041790610740565b80601f016020809104026020016040519081016040528092919081815260200182805461044390610740565b801561048e5780601f106104655761010080835404028352916020019161048e565b820191905f5260205f20905b81548152906001019060200180831161047157829003601f168201915b505050506002830154600384015460049094015492936001600160a01b039091169290915060ff1685565b5f81815260208190526040902060028101546001600160a01b0316331461051c5760405162461bcd60e51b81526020600482015260126024820152712737ba1031b7b73a32b73a1030baba3437b960711b60448201526064015b60405180910390fd5b600481015460ff166105705760405162461bcd60e51b815260206004820152601b60248201527f436f6e74656e7420616c726561647920646561637469766174656400000000006044820152606401610513565b60048101805460ff1916905560405182907f87eca800c5aafd6414b5e7f7f64649c6a947da66c7fdcbaa2b856462d388e25b905f90a25050565b5f602082840312156105ba575f5ffd5b5035919050565b5f81518084528060208401602086015e5f602082860101526020601f19601f83011685010191505092915050565b60a081525f61060160a08301886105c1565b828103602084015261061381886105c1565b6001600160a01b0396909616604084015250506060810192909252151560809091015292915050565b634e487b7160e01b5f52604160045260245ffd5b5f82601f83011261065f575f5ffd5b813567ffffffffffffffff8111156106795761067961063c565b604051601f8201601f19908116603f0116810167ffffffffffffffff811182821017156106a8576106a861063c565b6040528181528382016020018510156106bf575f5ffd5b816020850160208301375f918101602001919091529392505050565b5f5f604083850312156106ec575f5ffd5b823567ffffffffffffffff811115610702575f5ffd5b61070e85828601610650565b925050602083013567ffffffffffffffff81111561072a575f5ffd5b61073685828601610650565b9150509250929050565b600181811c9082168061075457607f821691505b60208210810361077257634e487b7160e01b5f52602260045260245ffd5b50919050565b5f6001820161079557634e487b7160e01b5f52601160045260245ffd5b5060010190565b601f8211156107e357805f5260205f20601f840160051c810160208510156107c15750805b601f840160051c820191505b818110156107e0575f81556001016107cd565b50505b505050565b815167ffffffffffffffff8111156108025761080261063c565b610816816108108454610740565b8461079c565b6020601f821160018114610848575f83156108315750848201515b5f19600385901b1c1916600184901b1784556107e0565b5f84815260208120601f198516915b828110156108775787850151825560209485019460019092019101610857565b508482101561089457868401515f19600387901b60f8161c191681555b50505050600190811b01905550565b606081525f6108b560608301866105c1565b82810360208401526108c781866105c1565b91505060018060a01b038316604083015294935050505056fea2646970667358221220c8e94cd04f4ba394fb77fc76a3021286a2de7b5bc90972b76720eb65ebde281b64736f6c634300081d0033",
			"opcodes": "PUSH1 0x80 PUSH1 0x40 MSTORE CALLVALUE DUP1 ISZERO PUSH1 0xE JUMPI PUSH0 PUSH0 REVERT JUMPDEST POP PUSH2 0x916 DUP1 PUSH2 0x1C PUSH0 CODECOPY PUSH0 RETURN INVALID PUSH1 0x80 PUSH1 0x40 MSTORE CALLVALUE DUP1 ISZERO PUSH2 0xF JUMPI PUSH0 PUSH0 REVERT JUMPDEST POP PUSH1 0x4 CALLDATASIZE LT PUSH2 0x55 JUMPI PUSH0 CALLDATALOAD PUSH1 0xE0 SHR DUP1 PUSH4 0xB7AD54C EQ PUSH2 0x59 JUMPI DUP1 PUSH4 0x3AD3D548 EQ PUSH2 0x86 JUMPI DUP1 PUSH4 0xB5ECF912 EQ PUSH2 0x9B JUMPI DUP1 PUSH4 0xCC459696 EQ PUSH2 0xAE JUMPI DUP1 PUSH4 0xF2D0811F EQ PUSH2 0xC5 JUMPI JUMPDEST PUSH0 PUSH0 REVERT JUMPDEST PUSH2 0x6C PUSH2 0x67 CALLDATASIZE PUSH1 0x4 PUSH2 0x5AA JUMP JUMPDEST PUSH2 0xD8 JUMP JUMPDEST PUSH1 0x40 MLOAD PUSH2 0x7D SWAP6 SWAP5 SWAP4 SWAP3 SWAP2 SWAP1 PUSH2 0x5EF JUMP JUMPDEST PUSH1 0x40 MLOAD DUP1 SWAP2 SUB SWAP1 RETURN JUMPDEST PUSH2 0x99 PUSH2 0x94 CALLDATASIZE PUSH1 0x4 PUSH2 0x6DB JUMP JUMPDEST PUSH2 0x276 JUMP JUMPDEST STOP JUMPDEST PUSH2 0x6C PUSH2 0xA9 CALLDATASIZE PUSH1 0x4 PUSH2 0x5AA JUMP JUMPDEST PUSH2 0x371 JUMP JUMPDEST PUSH2 0xB7 PUSH1 0x1 SLOAD DUP2 JUMP JUMPDEST PUSH1 0x40 MLOAD SWAP1 DUP2 MSTORE PUSH1 0x20 ADD PUSH2 0x7D JUMP JUMPDEST PUSH2 0x99 PUSH2 0xD3 CALLDATASIZE PUSH1 0x4 PUSH2 0x5AA JUMP JUMPDEST PUSH2 0x4B9 JUMP JUMPDEST PUSH1 0x60 DUP1 PUSH0 PUSH0 PUSH0 PUSH0 PUSH0 PUSH0 DUP9 DUP2 MSTORE PUSH1 0x20 ADD SWAP1 DUP2 MSTORE PUSH1 0x20 ADD PUSH0 KECCAK256 PUSH1 0x40 MLOAD DUP1 PUSH1 0xA0 ADD PUSH1 0x40 MSTORE SWAP1 DUP2 PUSH0 DUP3 ADD DUP1 SLOAD PUSH2 0x109 SWAP1 PUSH2 0x740 JUMP JUMPDEST DUP1 PUSH1 0x1F ADD PUSH1 0x20 DUP1 SWAP2 DIV MUL PUSH1 0x20 ADD PUSH1 0x40 MLOAD SWAP1 DUP2 ADD PUSH1 0x40 MSTORE DUP1 SWAP3 SWAP2 SWAP1 DUP2 DUP2 MSTORE PUSH1 0x20 ADD DUP3 DUP1 SLOAD PUSH2 0x135 SWAP1 PUSH2 0x740 JUMP JUMPDEST DUP1 ISZERO PUSH2 0x180 JUMPI DUP1 PUSH1 0x1F LT PUSH2 0x157 JUMPI PUSH2 0x100 DUP1 DUP4 SLOAD DIV MUL DUP4 MSTORE SWAP2 PUSH1 0x20 ADD SWAP2 PUSH2 0x180 JUMP JUMPDEST DUP3 ADD SWAP2 SWAP1 PUSH0 MSTORE PUSH1 0x20 PUSH0 KECCAK256 SWAP1 JUMPDEST DUP2 SLOAD DUP2 MSTORE SWAP1 PUSH1 0x1 ADD SWAP1 PUSH1 0x20 ADD DUP1 DUP4 GT PUSH2 0x163 JUMPI DUP3 SWAP1 SUB PUSH1 0x1F AND DUP3 ADD SWAP2 JUMPDEST POP POP POP POP POP DUP2 MSTORE PUSH1 0x20 ADD PUSH1 0x1 DUP3 ADD DUP1 SLOAD PUSH2 0x199 SWAP1 PUSH2 0x740 JUMP JUMPDEST DUP1 PUSH1 0x1F ADD PUSH1 0x20 DUP1 SWAP2 DIV MUL PUSH1 0x20 ADD PUSH1 0x40 MLOAD SWAP1 DUP2 ADD PUSH1 0x40 MSTORE DUP1 SWAP3 SWAP2 SWAP1 DUP2 DUP2 MSTORE PUSH1 0x20 ADD DUP3 DUP1 SLOAD PUSH2 0x1C5 SWAP1 PUSH2 0x740 JUMP JUMPDEST DUP1 ISZERO PUSH2 0x210 JUMPI DUP1 PUSH1 0x1F LT PUSH2 0x1E7 JUMPI PUSH2 0x100 DUP1 DUP4 SLOAD DIV MUL DUP4 MSTORE SWAP2 PUSH1 0x20 ADD SWAP2 PUSH2 0x210 JUMP JUMPDEST DUP3 ADD SWAP2 SWAP1 PUSH0 MSTORE PUSH1 0x20 PUSH0 KECCAK256 SWAP1 JUMPDEST DUP2 SLOAD DUP2 MSTORE SWAP1 PUSH1 0x1 ADD SWAP1 PUSH1 0x20 ADD DUP1 DUP4 GT PUSH2 0x1F3 JUMPI DUP3 SWAP1 SUB PUSH1 0x1F AND DUP3 ADD SWAP2 JUMPDEST POP POP POP SWAP2 DUP4 MSTORE POP POP PUSH1 0x2 DUP3 ADD SLOAD PUSH1 0x1 PUSH1 0x1 PUSH1 0xA0 SHL SUB AND PUSH1 0x20 DUP1 DUP4 ADD SWAP2 SWAP1 SWAP2 MSTORE PUSH1 0x3 DUP4 ADD SLOAD PUSH1 0x40 DUP1 DUP5 ADD SWAP2 SWAP1 SWAP2 MSTORE PUSH1 0x4 SWAP1 SWAP4 ADD SLOAD PUSH1 0xFF AND ISZERO ISZERO PUSH1 0x60 SWAP3 DUP4 ADD MSTORE DUP4 MLOAD SWAP1 DUP5 ADD MLOAD SWAP3 DUP5 ADD MLOAD SWAP2 DUP5 ADD MLOAD PUSH1 0x80 SWAP1 SWAP5 ADD MLOAD SWAP1 SWAP12 SWAP3 SWAP11 POP SWAP1 SWAP9 POP SWAP2 SWAP7 POP SWAP1 SWAP5 POP SWAP3 POP POP POP JUMP JUMPDEST PUSH1 0x1 DUP1 SLOAD SWAP1 PUSH0 PUSH2 0x285 DUP4 PUSH2 0x778 JUMP JUMPDEST SWAP1 SWAP2 SSTORE POP POP PUSH1 0x40 DUP1 MLOAD PUSH1 0xA0 DUP2 ADD DUP3 MSTORE DUP4 DUP2 MSTORE PUSH1 0x20 DUP1 DUP3 ADD DUP5 SWAP1 MSTORE CALLER DUP3 DUP5 ADD MSTORE TIMESTAMP PUSH1 0x60 DUP4 ADD MSTORE PUSH1 0x1 PUSH1 0x80 DUP4 ADD DUP2 SWAP1 MSTORE SLOAD PUSH0 SWAP1 DUP2 MSTORE SWAP1 DUP2 SWAP1 MSTORE SWAP2 SWAP1 SWAP2 KECCAK256 DUP2 MLOAD DUP2 SWAP1 PUSH2 0x2CE SWAP1 DUP3 PUSH2 0x7E8 JUMP JUMPDEST POP PUSH1 0x20 DUP3 ADD MLOAD PUSH1 0x1 DUP3 ADD SWAP1 PUSH2 0x2E3 SWAP1 DUP3 PUSH2 0x7E8 JUMP JUMPDEST POP PUSH1 0x40 DUP3 DUP2 ADD MLOAD PUSH1 0x2 DUP4 ADD DUP1 SLOAD PUSH1 0x1 PUSH1 0x1 PUSH1 0xA0 SHL SUB NOT AND PUSH1 0x1 PUSH1 0x1 PUSH1 0xA0 SHL SUB SWAP1 SWAP3 AND SWAP2 SWAP1 SWAP2 OR SWAP1 SSTORE PUSH1 0x60 DUP4 ADD MLOAD PUSH1 0x3 DUP4 ADD SSTORE PUSH1 0x80 SWAP1 SWAP3 ADD MLOAD PUSH1 0x4 SWAP1 SWAP2 ADD DUP1 SLOAD PUSH1 0xFF NOT AND SWAP2 ISZERO ISZERO SWAP2 SWAP1 SWAP2 OR SWAP1 SSTORE PUSH1 0x1 SLOAD SWAP1 MLOAD PUSH32 0xEB77A4650A4BAF709B6414844DE41286B19E7CBA2D0ADA625806139E85D3BBDE SWAP1 PUSH2 0x365 SWAP1 DUP6 SWAP1 DUP6 SWAP1 CALLER SWAP1 PUSH2 0x8A3 JUMP JUMPDEST PUSH1 0x40 MLOAD DUP1 SWAP2 SUB SWAP1 LOG2 POP POP JUMP JUMPDEST PUSH0 PUSH1 0x20 DUP2 SWAP1 MSTORE SWAP1 DUP2 MSTORE PUSH1 0x40 SWAP1 KECCAK256 DUP1 SLOAD DUP2 SWAP1 PUSH2 0x38B SWAP1 PUSH2 0x740 JUMP JUMPDEST DUP1 PUSH1 0x1F ADD PUSH1 0x20 DUP1 SWAP2 DIV MUL PUSH1 0x20 ADD PUSH1 0x40 MLOAD SWAP1 DUP2 ADD PUSH1 0x40 MSTORE DUP1 SWAP3 SWAP2 SWAP1 DUP2 DUP2 MSTORE PUSH1 0x20 ADD DUP3 DUP1 SLOAD PUSH2 0x3B7 SWAP1 PUSH2 0x740 JUMP JUMPDEST DUP1 ISZERO PUSH2 0x402 JUMPI DUP1 PUSH1 0x1F LT PUSH2 0x3D9 JUMPI PUSH2 0x100 DUP1 DUP4 SLOAD DIV MUL DUP4 MSTORE SWAP2 PUSH1 0x20 ADD SWAP2 PUSH2 0x402 JUMP JUMPDEST DUP3 ADD SWAP2 SWAP1 PUSH0 MSTORE PUSH1 0x20 PUSH0 KECCAK256 SWAP1 JUMPDEST DUP2 SLOAD DUP2 MSTORE SWAP1 PUSH1 0x1 ADD SWAP1 PUSH1 0x20 ADD DUP1 DUP4 GT PUSH2 0x3E5 JUMPI DUP3 SWAP1 SUB PUSH1 0x1F AND DUP3 ADD SWAP2 JUMPDEST POP POP POP POP POP SWAP1 DUP1 PUSH1 0x1 ADD DUP1 SLOAD PUSH2 0x417 SWAP1 PUSH2 0x740 JUMP JUMPDEST DUP1 PUSH1 0x1F ADD PUSH1 0x20 DUP1 SWAP2 DIV MUL PUSH1 0x20 ADD PUSH1 0x40 MLOAD SWAP1 DUP2 ADD PUSH1 0x40 MSTORE DUP1 SWAP3 SWAP2 SWAP1 DUP2 DUP2 MSTORE PUSH1 0x20 ADD DUP3 DUP1 SLOAD PUSH2 0x443 SWAP1 PUSH2 0x740 JUMP JUMPDEST DUP1 ISZERO PUSH2 0x48E JUMPI DUP1 PUSH1 0x1F LT PUSH2 0x465 JUMPI PUSH2 0x100 DUP1 DUP4 SLOAD DIV MUL DUP4 MSTORE SWAP2 PUSH1 0x20 ADD SWAP2 PUSH2 0x48E JUMP JUMPDEST DUP3 ADD SWAP2 SWAP1 PUSH0 MSTORE PUSH1 0x20 PUSH0 KECCAK256 SWAP1 JUMPDEST DUP2 SLOAD DUP2 MSTORE SWAP1 PUSH1 0x1 ADD SWAP1 PUSH1 0x20 ADD DUP1 DUP4 GT PUSH2 0x471 JUMPI DUP3 SWAP1 SUB PUSH1 0x1F AND DUP3 ADD SWAP2 JUMPDEST POP POP POP POP PUSH1 0x2 DUP4 ADD SLOAD PUSH1 0x3 DUP5 ADD SLOAD PUSH1 0x4 SWAP1 SWAP5 ADD SLOAD SWAP3 SWAP4 PUSH1 0x1 PUSH1 0x1 PUSH1 0xA0 SHL SUB SWAP1 SWAP2 AND SWAP3 SWAP1 SWAP2 POP PUSH1 0xFF AND DUP6 JUMP JUMPDEST PUSH0 DUP2 DUP2 MSTORE PUSH1 0x20 DUP2 SWAP1 MSTORE PUSH1 0x40 SWAP1 KECCAK256 PUSH1 0x2 DUP2 ADD SLOAD PUSH1 0x1 PUSH1 0x1 PUSH1 0xA0 SHL SUB AND CALLER EQ PUSH2 0x51C JUMPI PUSH1 0x40 MLOAD PUSH3 0x461BCD PUSH1 0xE5 SHL DUP2 MSTORE PUSH1 0x20 PUSH1 0x4 DUP3 ADD MSTORE PUSH1 0x12 PUSH1 0x24 DUP3 ADD MSTORE PUSH18 0x2737BA1031B7B73A32B73A1030BABA3437B9 PUSH1 0x71 SHL PUSH1 0x44 DUP3 ADD MSTORE PUSH1 0x64 ADD JUMPDEST PUSH1 0x40 MLOAD DUP1 SWAP2 SUB SWAP1 REVERT JUMPDEST PUSH1 0x4 DUP2 ADD SLOAD PUSH1 0xFF AND PUSH2 0x570 JUMPI PUSH1 0x40 MLOAD PUSH3 0x461BCD PUSH1 0xE5 SHL DUP2 MSTORE PUSH1 0x20 PUSH1 0x4 DUP3 ADD MSTORE PUSH1 0x1B PUSH1 0x24 DUP3 ADD MSTORE PUSH32 0x436F6E74656E7420616C72656164792064656163746976617465640000000000 PUSH1 0x44 DUP3 ADD MSTORE PUSH1 0x64 ADD PUSH2 0x513 JUMP JUMPDEST PUSH1 0x4 DUP2 ADD DUP1 SLOAD PUSH1 0xFF NOT AND SWAP1 SSTORE PUSH1 0x40 MLOAD DUP3 SWAP1 PUSH32 0x87ECA800C5AAFD6414B5E7F7F64649C6A947DA66C7FDCBAA2B856462D388E25B SWAP1 PUSH0 SWAP1 LOG2 POP POP JUMP JUMPDEST PUSH0 PUSH1 0x20 DUP3 DUP5 SUB SLT ISZERO PUSH2 0x5BA JUMPI PUSH0 PUSH0 REVERT JUMPDEST POP CALLDATALOAD SWAP2 SWAP1 POP JUMP JUMPDEST PUSH0 DUP2 MLOAD DUP1 DUP5 MSTORE DUP1 PUSH1 0x20 DUP5 ADD PUSH1 0x20 DUP7 ADD MCOPY PUSH0 PUSH1 0x20 DUP3 DUP7 ADD ADD MSTORE PUSH1 0x20 PUSH1 0x1F NOT PUSH1 0x1F DUP4 ADD AND DUP6 ADD ADD SWAP2 POP POP SWAP3 SWAP2 POP POP JUMP JUMPDEST PUSH1 0xA0 DUP2 MSTORE PUSH0 PUSH2 0x601 PUSH1 0xA0 DUP4 ADD DUP9 PUSH2 0x5C1 JUMP JUMPDEST DUP3 DUP2 SUB PUSH1 0x20 DUP5 ADD MSTORE PUSH2 0x613 DUP2 DUP9 PUSH2 0x5C1 JUMP JUMPDEST PUSH1 0x1 PUSH1 0x1 PUSH1 0xA0 SHL SUB SWAP7 SWAP1 SWAP7 AND PUSH1 0x40 DUP5 ADD MSTORE POP POP PUSH1 0x60 DUP2 ADD SWAP3 SWAP1 SWAP3 MSTORE ISZERO ISZERO PUSH1 0x80 SWAP1 SWAP2 ADD MSTORE SWAP3 SWAP2 POP POP JUMP JUMPDEST PUSH4 0x4E487B71 PUSH1 0xE0 SHL PUSH0 MSTORE PUSH1 0x41 PUSH1 0x4 MSTORE PUSH1 0x24 PUSH0 REVERT JUMPDEST PUSH0 DUP3 PUSH1 0x1F DUP4 ADD SLT PUSH2 0x65F JUMPI PUSH0 PUSH0 REVERT JUMPDEST DUP2 CALLDATALOAD PUSH8 0xFFFFFFFFFFFFFFFF DUP2 GT ISZERO PUSH2 0x679 JUMPI PUSH2 0x679 PUSH2 0x63C JUMP JUMPDEST PUSH1 0x40 MLOAD PUSH1 0x1F DUP3 ADD PUSH1 0x1F NOT SWAP1 DUP2 AND PUSH1 0x3F ADD AND DUP2 ADD PUSH8 0xFFFFFFFFFFFFFFFF DUP2 GT DUP3 DUP3 LT OR ISZERO PUSH2 0x6A8 JUMPI PUSH2 0x6A8 PUSH2 0x63C JUMP JUMPDEST PUSH1 0x40 MSTORE DUP2 DUP2 MSTORE DUP4 DUP3 ADD PUSH1 0x20 ADD DUP6 LT ISZERO PUSH2 0x6BF JUMPI PUSH0 PUSH0 REVERT JUMPDEST DUP2 PUSH1 0x20 DUP6 ADD PUSH1 0x20 DUP4 ADD CALLDATACOPY PUSH0 SWAP2 DUP2 ADD PUSH1 0x20 ADD SWAP2 SWAP1 SWAP2 MSTORE SWAP4 SWAP3 POP POP POP JUMP JUMPDEST PUSH0 PUSH0 PUSH1 0x40 DUP4 DUP6 SUB SLT ISZERO PUSH2 0x6EC JUMPI PUSH0 PUSH0 REVERT JUMPDEST DUP3 CALLDATALOAD PUSH8 0xFFFFFFFFFFFFFFFF DUP2 GT ISZERO PUSH2 0x702 JUMPI PUSH0 PUSH0 REVERT JUMPDEST PUSH2 0x70E DUP6 DUP3 DUP7 ADD PUSH2 0x650 JUMP JUMPDEST SWAP3 POP POP PUSH1 0x20 DUP4 ADD CALLDATALOAD PUSH8 0xFFFFFFFFFFFFFFFF DUP2 GT ISZERO PUSH2 0x72A JUMPI PUSH0 PUSH0 REVERT JUMPDEST PUSH2 0x736 DUP6 DUP3 DUP7 ADD PUSH2 0x650 JUMP JUMPDEST SWAP2 POP POP SWAP3 POP SWAP3 SWAP1 POP JUMP JUMPDEST PUSH1 0x1 DUP2 DUP2 SHR SWAP1 DUP3 AND DUP1 PUSH2 0x754 JUMPI PUSH1 0x7F DUP3 AND SWAP2 POP JUMPDEST PUSH1 0x20 DUP3 LT DUP2 SUB PUSH2 0x772 JUMPI PUSH4 0x4E487B71 PUSH1 0xE0 SHL PUSH0 MSTORE PUSH1 0x22 PUSH1 0x4 MSTORE PUSH1 0x24 PUSH0 REVERT JUMPDEST POP SWAP2 SWAP1 POP JUMP JUMPDEST PUSH0 PUSH1 0x1 DUP3 ADD PUSH2 0x795 JUMPI PUSH4 0x4E487B71 PUSH1 0xE0 SHL PUSH0 MSTORE PUSH1 0x11 PUSH1 0x4 MSTORE PUSH1 0x24 PUSH0 REVERT JUMPDEST POP PUSH1 0x1 ADD SWAP1 JUMP JUMPDEST PUSH1 0x1F DUP3 GT ISZERO PUSH2 0x7E3 JUMPI DUP1 PUSH0 MSTORE PUSH1 0x20 PUSH0 KECCAK256 PUSH1 0x1F DUP5 ADD PUSH1 0x5 SHR DUP2 ADD PUSH1 0x20 DUP6 LT ISZERO PUSH2 0x7C1 JUMPI POP DUP1 JUMPDEST PUSH1 0x1F DUP5 ADD PUSH1 0x5 SHR DUP3 ADD SWAP2 POP JUMPDEST DUP2 DUP2 LT ISZERO PUSH2 0x7E0 JUMPI PUSH0 DUP2 SSTORE PUSH1 0x1 ADD PUSH2 0x7CD JUMP JUMPDEST POP POP JUMPDEST POP POP POP JUMP JUMPDEST DUP2 MLOAD PUSH8 0xFFFFFFFFFFFFFFFF DUP2 GT ISZERO PUSH2 0x802 JUMPI PUSH2 0x802 PUSH2 0x63C JUMP JUMPDEST PUSH2 0x816 DUP2 PUSH2 0x810 DUP5 SLOAD PUSH2 0x740 JUMP JUMPDEST DUP5 PUSH2 0x79C JUMP JUMPDEST PUSH1 0x20 PUSH1 0x1F DUP3 GT PUSH1 0x1 DUP2 EQ PUSH2 0x848 JUMPI PUSH0 DUP4 ISZERO PUSH2 0x831 JUMPI POP DUP5 DUP3 ADD MLOAD JUMPDEST PUSH0 NOT PUSH1 0x3 DUP6 SWAP1 SHL SHR NOT AND PUSH1 0x1 DUP5 SWAP1 SHL OR DUP5 SSTORE PUSH2 0x7E0 JUMP JUMPDEST PUSH0 DUP5 DUP2 MSTORE PUSH1 0x20 DUP2 KECCAK256 PUSH1 0x1F NOT DUP6 AND SWAP2 JUMPDEST DUP3 DUP2 LT ISZERO PUSH2 0x877 JUMPI DUP8 DUP6 ADD MLOAD DUP3 SSTORE PUSH1 0x20 SWAP5 DUP6 ADD SWAP5 PUSH1 0x1 SWAP1 SWAP3 ADD SWAP2 ADD PUSH2 0x857 JUMP JUMPDEST POP DUP5 DUP3 LT ISZERO PUSH2 0x894 JUMPI DUP7 DUP5 ADD MLOAD PUSH0 NOT PUSH1 0x3 DUP8 SWAP1 SHL PUSH1 0xF8 AND SHR NOT AND DUP2 SSTORE JUMPDEST POP POP POP POP PUSH1 0x1 SWAP1 DUP2 SHL ADD SWAP1 SSTORE POP JUMP JUMPDEST PUSH1 0x60 DUP2 MSTORE PUSH0 PUSH2 0x8B5 PUSH1 0x60 DUP4 ADD DUP7 PUSH2 0x5C1 JUMP JUMPDEST DUP3 DUP2 SUB PUSH1 0x20 DUP5 ADD MSTORE PUSH2 0x8C7 DUP2 DUP7 PUSH2 0x5C1 JUMP JUMPDEST SWAP2 POP POP PUSH1 0x1 DUP1 PUSH1 0xA0 SHL SUB DUP4 AND PUSH1 0x40 DUP4 ADD MSTORE SWAP5 SWAP4 POP POP POP POP JUMP INVALID LOG2 PUSH5 0x6970667358 0x22 SLT KECCAK256 0xC8 0xE9 0x4C 0xD0 0x4F 0x4B LOG3 SWAP5 EXTSTATICCALL PUSH24 0xFC76A3021286A2DE7B5BC90972B76720EB65EBDE281B6473 PUSH16 0x6C634300081D00330000000000000000 "
		},
		"gasEstimates": {
			"creation": {
				"codeDepositCost": "465200",
				"executionCost": "497",
				"totalCost": "465697"
			},
			"external": {
				"contentCount()": "2338",
				"contents(uint256)": "infinite",
				"deactivateContent(uint256)": "30007",
				"getContent(uint256)": "infinite",
				"uploadContent(string,string)": "infinite"
			}
		},
		"methodIdentifiers": {
			"contentCount()": "cc459696",
			"contents(uint256)": "b5ecf912",
			"deactivateContent(uint256)": "f2d0811f",
			"getContent(uint256)": "0b7ad54c",
			"uploadContent(string,string)": "3ad3d548"
		}
	},
	"abi": [
		{
			"anonymous": false,
			"inputs": [
				{
					"indexed": true,
					"internalType": "uint256",
					"name": "contentId",
					"type": "uint256"
				}
			],
			"name": "ContentDeactivated",
			"type": "event"
		},
		{
			"anonymous": false,
			"inputs": [
				{
					"indexed": true,
					"internalType": "uint256",
					"name": "contentId",
					"type": "uint256"
				},
				{
					"indexed": false,
					"internalType": "string",
					"name": "title",
					"type": "string"
				},
				{
					"indexed": false,
					"internalType": "string",
					"name": "contentHash",
					"type": "string"
				},
				{
					"indexed": false,
					"internalType": "address",
					"name": "author",
					"type": "address"
				}
			],
			"name": "ContentUploaded",
			"type": "event"
		},
		{
			"inputs": [],
			"name": "contentCount",
			"outputs": [
				{
					"internalType": "uint256",
					"name": "",
					"type": "uint256"
				}
			],
			"stateMutability": "view",
			"type": "function"
		},
		{
			"inputs": [
				{
					"internalType": "uint256",
					"name": "",
					"type": "uint256"
				}
			],
			"name": "contents",
			"outputs": [
				{
					"internalType": "string",
					"name": "title",
					"type": "string"
				},
				{
					"internalType": "string",
					"name": "contentHash",
					"type": "string"
				},
				{
					"internalType": "address",
					"name": "author",
					"type": "address"
				},
				{
					"internalType": "uint256",
					"name": "uploadDate",
					"type": "uint256"
				},
				{
					"internalType": "bool",
					"name": "active",
					"type": "bool"
				}
			],
			"stateMutability": "view",
			"type": "function"
		},
		{
			"inputs": [
				{
					"internalType": "uint256",
					"name": "_contentId",
					"type": "uint256"
				}
			],
			"name": "deactivateContent",
			"outputs": [],
			"stateMutability": "nonpayable",
			"type": "function"
		},
		{
			"inputs": [
				{
					"internalType": "uint256",
					"name": "_contentId",
					"type": "uint256"
				}
			],
			"name": "getContent",
			"outputs": [
				{
					"internalType": "string",
					"name": "title",
					"type": "string"
				},
				{
					"internalType": "string",
					"name": "contentHash",
					"type": "string"
				},
				{
					"internalType": "address",
					"name": "author",
					"type": "address"
				},
				{
					"internalType": "uint256",
					"name": "uploadDate",
					"type": "uint256"
				},
				{
					"internalType": "bool",
					"name": "active",
					"type": "bool"
				}
			],
			"stateMutability": "view",
			"type": "function"
		},
		{
			"inputs": [
				{
					"internalType": "string",
					"name": "_title",
					"type": "string"
				},
				{
					"internalType": "string",
					"name": "_contentHash",
					"type": "string"
				}
			],
			"name": "uploadContent",
			"outputs": [],
			"stateMutability": "nonpayable",
			"type": "function"
		}
	]
}