{
	"data": {
		"bytecode": {
			"linkReferences": {},
			"object": "6080604052348015600e575f5ffd5b506109e38061001c5f395ff3fe608060405234801561000f575f5ffd5b5060043610610055575f3560e01c80631b87278d146100595780638b1afa801461006e5780638dd18d2d14610081578063cd0e35b9146100ae578063e0574e3f146100c5575b5f5ffd5b61006c610067366004610644565b6100d8565b005b61006c61007c3660046106fa565b61017e565b61009461008f366004610644565b61026a565b6040516100a59594939291906107b6565b60405180910390f35b6100b760015481565b6040519081526020016100a5565b6100946100d3366004610644565b610481565b5f8181526020819052604090206004015460ff1661013c5760405162461bcd60e51b815260206004820152601a60248201527f43726564656e7469616c20616c7265616479207265766f6b6564000000000000604482015260640160405180910390fd5b5f81815260208190526040808220600401805460ff191690555182917f0d47d5695004d2a4180ebb40037756439184993a0d1c6d4a8ff3a6aa9325607491a250565b60018054905f61018d83610808565b90915550506040805160a0810182528481526020808201859052818301849052426060830152600160808301819052545f9081529081905291909120815181906101d790826108b0565b50602082015160018201906101ec90826108b0565b506040820151600282019061020190826108b0565b50606082015160038201556080909101516004909101805460ff19169115159190911790556001546040517f53850ac96fa418206df3179cc9bcafa9bd3fd0a73c1bc3387cbeb4b8672ae47a9061025d9086908690869061096b565b60405180910390a2505050565b60608060605f5f5f5f5f8881526020019081526020015f206040518060a00160405290815f8201805461029c9061082c565b80601f01602080910402602001604051908101604052809291908181526020018280546102c89061082c565b80156103135780601f106102ea57610100808354040283529160200191610313565b820191905f5260205f20905b8154815290600101906020018083116102f657829003601f168201915b5050505050815260200160018201805461032c9061082c565b80601f01602080910402602001604051908101604052809291908181526020018280546103589061082c565b80156103a35780601f1061037a576101008083540402835291602001916103a3565b820191905f5260205f20905b81548152906001019060200180831161038657829003601f168201915b505050505081526020016002820180546103bc9061082c565b80601f01602080910402602001604051908101604052809291908181526020018280546103e89061082c565b80156104335780601f1061040a57610100808354040283529160200191610433565b820191905f5260205f20905b81548152906001019060200180831161041657829003601f168201915b5050509183525050600382015460208083019190915260049092015460ff161515604091820152825191830151908301516060840151608090940151929b919a509850919650945092505050565b5f6020819052908152604090208054819061049b9061082c565b80601f01602080910402602001604051908101604052809291908181526020018280546104c79061082c565b80156105125780601f106104e957610100808354040283529160200191610512565b820191905f5260205f20905b8154815290600101906020018083116104f557829003601f168201915b5050505050908060010180546105279061082c565b80601f01602080910402602001604051908101604052809291908181526020018280546105539061082c565b801561059e5780601f106105755761010080835404028352916020019161059e565b820191905f5260205f20905b81548152906001019060200180831161058157829003601f168201915b5050505050908060020180546105b39061082c565b80601f01602080910402602001604051908101604052809291908181526020018280546105df9061082c565b801561062a5780601f106106015761010080835404028352916020019161062a565b820191905f5260205f20905b81548152906001019060200180831161060d57829003601f168201915b50505050600383015460049093015491929160ff16905085565b5f60208284031215610654575f5ffd5b5035919050565b634e487b7160e01b5f52604160045260245ffd5b5f82601f83011261067e575f5ffd5b813567ffffffffffffffff8111156106985761069861065b565b604051601f8201601f19908116603f0116810167ffffffffffffffff811182821017156106c7576106c761065b565b6040528181528382016020018510156106de575f5ffd5b816020850160208301375f918101602001919091529392505050565b5f5f5f6060848603121561070c575f5ffd5b833567ffffffffffffffff811115610722575f5ffd5b61072e8682870161066f565b935050602084013567ffffffffffffffff81111561074a575f5ffd5b6107568682870161066f565b925050604084013567ffffffffffffffff811115610772575f5ffd5b61077e8682870161066f565b9150509250925092565b5f81518084528060208401602086015e5f602082860101526020601f19601f83011685010191505092915050565b60a081525f6107c860a0830188610788565b82810360208401526107da8188610788565b905082810360408401526107ee8187610788565b606084019590955250509015156080909101529392505050565b5f6001820161082557634e487b7160e01b5f52601160045260245ffd5b5060010190565b600181811c9082168061084057607f821691505b60208210810361085e57634e487b7160e01b5f52602260045260245ffd5b50919050565b601f8211156108ab57805f5260205f20601f840160051c810160208510156108895750805b601f840160051c820191505b818110156108a8575f8155600101610895565b50505b505050565b815167ffffffffffffffff8111156108ca576108ca61065b565b6108de816108d8845461082c565b84610864565b6020601f821160018114610910575f83156108f95750848201515b5f19600385901b1c1916600184901b1784556108a8565b5f84815260208120601f198516915b8281101561093f578785015182556020948501946001909201910161091f565b508482101561095c57868401515f19600387901b60f8161c191681555b50505050600190811b01905550565b606081525f61097d6060830186610788565b828103602084015261098f8186610788565b905082810360408401526109a38185610788565b969550505050505056fea2646970667358221220f684b5f8c4e588a3d5b30efca169df1b08af7b607ea83a0628f128842bedecac64736f6c634300081d0033",
			"opcodes": "PUSH1 0x80 PUSH1 0x40 MSTORE CALLVALUE DUP1 ISZERO PUSH1 0xE JUMPI PUSH0 PUSH0 REVERT JUMPDEST POP PUSH2 0x9E3 DUP1 PUSH2 0x1C PUSH0 CODECOPY PUSH0 RETURN INVALID PUSH1 0x80 PUSH1 0x40 MSTORE CALLVALUE DUP1 ISZERO PUSH2 0xF JUMPI PUSH0 PUSH0 REVERT JUMPDEST POP PUSH1 0x4 CALLDATASIZE LT PUSH2 0x55 JUMPI PUSH0 CALLDATALOAD PUSH1 0xE0 SHR DUP1 PUSH4 0x1B87278D EQ PUSH2 0x59 JUMPI DUP1 PUSH4 0x8B1AFA80 EQ PUSH2 0x6E JUMPI DUP1 PUSH4 0x8DD18D2D EQ PUSH2 0x81 JUMPI DUP1 PUSH4 0xCD0E35B9 EQ PUSH2 0xAE JUMPI DUP1 PUSH4 0xE0574E3F EQ PUSH2 0xC5 JUMPI JUMPDEST PUSH0 PUSH0 REVERT JUMPDEST PUSH2 0x6C PUSH2 0x67 CALLDATASIZE PUSH1 0x4 PUSH2 0x644 JUMP JUMPDEST PUSH2 0xD8 JUMP JUMPDEST STOP JUMPDEST PUSH2 0x6C PUSH2 0x7C CALLDATASIZE PUSH1 0x4 PUSH2 0x6FA JUMP JUMPDEST PUSH2 0x17E JUMP JUMPDEST PUSH2 0x94 PUSH2 0x8F CALLDATASIZE PUSH1 0x4 PUSH2 0x644 JUMP JUMPDEST PUSH2 0x26A JUMP JUMPDEST PUSH1 0x40 MLOAD PUSH2 0xA5 SWAP6 SWAP5 SWAP4 SWAP3 SWAP2 SWAP1 PUSH2 0x7B6 JUMP JUMPDEST PUSH1 0x40 MLOAD DUP1 SWAP2 SUB SWAP1 RETURN JUMPDEST PUSH2 0xB7 PUSH1 0x1 SLOAD DUP2 JUMP JUMPDEST PUSH1 0x40 MLOAD SWAP1 DUP2 MSTORE PUSH1 0x20 ADD PUSH2 0xA5 JUMP JUMPDEST PUSH2 0x94 PUSH2 0xD3 CALLDATASIZE PUSH1 0x4 PUSH2 0x644 JUMP JUMPDEST PUSH2 0x481 JUMP JUMPDEST PUSH0 DUP2 DUP2 MSTORE PUSH1 0x20 DUP2 SWAP1 MSTORE PUSH1 0x40 SWAP1 KECCAK256 PUSH1 0x4 ADD SLOAD PUSH1 0xFF AND PUSH2 0x13C JUMPI PUSH1 0x40 MLOAD PUSH3 0x461BCD PUSH1 0xE5 SHL DUP2 MSTORE PUSH1 0x20 PUSH1 0x4 DUP3 ADD MSTORE PUSH1 0x1A PUSH1 0x24 DUP3 ADD MSTORE PUSH32 0x43726564656E7469616C20616C7265616479207265766F6B6564000000000000 PUSH1 0x44 DUP3 ADD MSTORE PUSH1 0x64 ADD PUSH1 0x40 MLOAD DUP1 SWAP2 SUB SWAP1 REVERT JUMPDEST PUSH0 DUP2 DUP2 MSTORE PUSH1 0x20 DUP2 SWAP1 MSTORE PUSH1 0x40 DUP1 DUP3 KECCAK256 PUSH1 0x4 ADD DUP1 SLOAD PUSH1 0xFF NOT AND SWAP1 SSTORE MLOAD DUP3 SWAP2 PUSH32 0xD47D5695004D2A4180EBB40037756439184993A0D1C6D4A8FF3A6AA93256074 SWAP2 LOG2 POP JUMP JUMPDEST PUSH1 0x1 DUP1 SLOAD SWAP1 PUSH0 PUSH2 0x18D DUP4 PUSH2 0x808 JUMP JUMPDEST SWAP1 SWAP2 SSTORE POP POP PUSH1 0x40 DUP1 MLOAD PUSH1 0xA0 DUP2 ADD DUP3 MSTORE DUP5 DUP2 MSTORE PUSH1 0x20 DUP1 DUP3 ADD DUP6 SWAP1 MSTORE DUP2 DUP4 ADD DUP5 SWAP1 MSTORE TIMESTAMP PUSH1 0x60 DUP4 ADD MSTORE PUSH1 0x1 PUSH1 0x80 DUP4 ADD DUP2 SWAP1 MSTORE SLOAD PUSH0 SWAP1 DUP2 MSTORE SWAP1 DUP2 SWAP1 MSTORE SWAP2 SWAP1 SWAP2 KECCAK256 DUP2 MLOAD DUP2 SWAP1 PUSH2 0x1D7 SWAP1 DUP3 PUSH2 0x8B0 JUMP JUMPDEST POP PUSH1 0x20 DUP3 ADD MLOAD PUSH1 0x1 DUP3 ADD SWAP1 PUSH2 0x1EC SWAP1 DUP3 PUSH2 0x8B0 JUMP JUMPDEST POP PUSH1 0x40 DUP3 ADD MLOAD PUSH1 0x2 DUP3 ADD SWAP1 PUSH2 0x201 SWAP1 DUP3 PUSH2 0x8B0 JUMP JUMPDEST POP PUSH1 0x60 DUP3 ADD MLOAD PUSH1 0x3 DUP3 ADD SSTORE PUSH1 0x80 SWAP1 SWAP2 ADD MLOAD PUSH1 0x4 SWAP1 SWAP2 ADD DUP1 SLOAD PUSH1 0xFF NOT AND SWAP2 ISZERO ISZERO SWAP2 SWAP1 SWAP2 OR SWAP1 SSTORE PUSH1 0x1 SLOAD PUSH1 0x40 MLOAD PUSH32 0x53850AC96FA418206DF3179CC9BCAFA9BD3FD0A73C1BC3387CBEB4B8672AE47A SWAP1 PUSH2 0x25D SWAP1 DUP7 SWAP1 DUP7 SWAP1 DUP7 SWAP1 PUSH2 0x96B JUMP JUMPDEST PUSH1 0x40 MLOAD DUP1 SWAP2 SUB SWAP1 LOG2 POP POP POP JUMP JUMPDEST PUSH1 0x60 DUP1 PUSH1 0x60 PUSH0 PUSH0 PUSH0 PUSH0 PUSH0 DUP9 DUP2 MSTORE PUSH1 0x20 ADD SWAP1 DUP2 MSTORE PUSH1 0x20 ADD PUSH0 KECCAK256 PUSH1 0x40 MLOAD DUP1 PUSH1 0xA0 ADD PUSH1 0x40 MSTORE SWAP1 DUP2 PUSH0 DUP3 ADD DUP1 SLOAD PUSH2 0x29C SWAP1 PUSH2 0x82C JUMP JUMPDEST DUP1 PUSH1 0x1F ADD PUSH1 0x20 DUP1 SWAP2 DIV MUL PUSH1 0x20 ADD PUSH1 0x40 MLOAD SWAP1 DUP2 ADD PUSH1 0x40 MSTORE DUP1 SWAP3 SWAP2 SWAP1 DUP2 DUP2 MSTORE PUSH1 0x20 ADD DUP3 DUP1 SLOAD PUSH2 0x2C8 SWAP1 PUSH2 0x82C JUMP JUMPDEST DUP1 ISZERO PUSH2 0x313 JUMPI DUP1 PUSH1 0x1F LT PUSH2 0x2EA JUMPI PUSH2 0x100 DUP1 DUP4 SLOAD DIV MUL DUP4 MSTORE SWAP2 PUSH1 0x20 ADD SWAP2 PUSH2 0x313 JUMP JUMPDEST DUP3 ADD SWAP2 SWAP1 PUSH0 MSTORE PUSH1 0x20 PUSH0 KECCAK256 SWAP1 JUMPDEST DUP2 SLOAD DUP2 MSTORE SWAP1 PUSH1 0x1 ADD SWAP1 PUSH1 0x20 ADD DUP1 DUP4 GT PUSH2 0x2F6 JUMPI DUP3 SWAP1 SUB PUSH1 0x1F AND DUP3 ADD SWAP2 JUMPDEST POP POP POP POP POP DUP2 MSTORE PUSH1 0x20 ADD PUSH1 0x1 DUP3 ADD DUP1 SLOAD PUSH2 0x32C SWAP1 PUSH2 0x82C JUMP JUMPDEST DUP1 PUSH1 0x1F ADD PUSH1 0x20 DUP1 SWAP2 DIV MUL PUSH1 0x20 ADD PUSH1 0x40 MLOAD SWAP1 DUP2 ADD PUSH1 0x40 MSTORE DUP1 SWAP3 SWAP2 SWAP1 DUP2 DUP2 MSTORE PUSH1 0x20 ADD DUP3 DUP1 SLOAD PUSH2 0x358 SWAP1 PUSH2 0x82C JUMP JUMPDEST DUP1 ISZERO PUSH2 0x3A3 JUMPI DUP1 PUSH1 0x1F LT PUSH2 0x37A JUMPI PUSH2 0x100 DUP1 DUP4 SLOAD DIV MUL DUP4 MSTORE SWAP2 PUSH1 0x20 ADD SWAP2 PUSH2 0x3A3 JUMP JUMPDEST DUP3 ADD SWAP2 SWAP1 PUSH0 MSTORE PUSH1 0x20 PUSH0 KECCAK256 SWAP1 JUMPDEST DUP2 SLOAD DUP2 MSTORE SWAP1 PUSH1 0x1 ADD SWAP1 PUSH1 0x20 ADD DUP1 DUP4 GT PUSH2 0x386 JUMPI DUP3 SWAP1 SUB PUSH1 0x1F AND DUP3 ADD SWAP2 JUMPDEST POP POP POP POP POP DUP2 MSTORE PUSH1 0x20 ADD PUSH1 0x2 DUP3 ADD DUP1 SLOAD PUSH2 0x3BC SWAP1 PUSH2 0x82C JUMP JUMPDEST DUP1 PUSH1 0x1F ADD PUSH1 0x20 DUP1 SWAP2 DIV MUL PUSH1 0x20 ADD PUSH1 0x40 MLOAD SWAP1 DUP2 ADD PUSH1 0x40 MSTORE DUP1 SWAP3 SWAP2 SWAP1 DUP2 DUP2 MSTORE PUSH1 0x20 ADD DUP3 DUP1 SLOAD PUSH2 0x3E8 SWAP1 PUSH2 0x82C JUMP JUMPDEST DUP1 ISZERO PUSH2 0x433 JUMPI DUP1 PUSH1 0x1F LT PUSH2 0x40A JUMPI PUSH2 0x100 DUP1 DUP4 SLOAD DIV MUL DUP4 MSTORE SWAP2 PUSH1 0x20 ADD SWAP2 PUSH2 0x433 JUMP JUMPDEST DUP3 ADD SWAP2 SWAP1 PUSH0 MSTORE PUSH1 0x20 PUSH0 KECCAK256 SWAP1 JUMPDEST DUP2 SLOAD DUP2 MSTORE SWAP1 PUSH1 0x1 ADD SWAP1 PUSH1 0x20 ADD DUP1 DUP4 GT PUSH2 0x416 JUMPI DUP3 SWAP1 SUB PUSH1 0x1F AND DUP3 ADD SWAP2 JUMPDEST POP POP POP SWAP2 DUP4 MSTORE POP POP PUSH1 0x3 DUP3 ADD SLOAD PUSH1 0x20 DUP1 DUP4 ADD SWAP2 SWAP1 SWAP2 MSTORE PUSH1 0x4 SWAP1 SWAP3 ADD SLOAD PUSH1 0xFF AND ISZERO ISZERO PUSH1 0x40 SWAP2 DUP3 ADD MSTORE DUP3 MLOAD SWAP2 DUP4 ADD MLOAD SWAP1 DUP4 ADD MLOAD PUSH1 0x60 DUP5 ADD MLOAD PUSH1 0x80 SWAP1 SWAP5 ADD MLOAD SWAP3 SWAP12 SWAP2 SWAP11 POP SWAP9 POP SWAP2 SWAP7 POP SWAP5 POP SWAP3 POP POP POP JUMP JUMPDEST PUSH0 PUSH1 0x20 DUP2 SWAP1 MSTORE SWAP1 DUP2 MSTORE PUSH1 0x40 SWAP1 KECCAK256 DUP1 SLOAD DUP2 SWAP1 PUSH2 0x49B SWAP1 PUSH2 0x82C JUMP JUMPDEST DUP1 PUSH1 0x1F ADD PUSH1 0x20 DUP1 SWAP2 DIV MUL PUSH1 0x20 ADD PUSH1 0x40 MLOAD SWAP1 DUP2 ADD PUSH1 0x40 MSTORE DUP1 SWAP3 SWAP2 SWAP1 DUP2 DUP2 MSTORE PUSH1 0x20 ADD DUP3 DUP1 SLOAD PUSH2 0x4C7 SWAP1 PUSH2 0x82C JUMP JUMPDEST DUP1 ISZERO PUSH2 0x512 JUMPI DUP1 PUSH1 0x1F LT PUSH2 0x4E9 JUMPI PUSH2 0x100 DUP1 DUP4 SLOAD DIV MUL DUP4 MSTORE SWAP2 PUSH1 0x20 ADD SWAP2 PUSH2 0x512 JUMP JUMPDEST DUP3 ADD SWAP2 SWAP1 PUSH0 MSTORE PUSH1 0x20 PUSH0 KECCAK256 SWAP1 JUMPDEST DUP2 SLOAD DUP2 MSTORE SWAP1 PUSH1 0x1 ADD SWAP1 PUSH1 0x20 ADD DUP1 DUP4 GT PUSH2 0x4F5 JUMPI DUP3 SWAP1 SUB PUSH1 0x1F AND DUP3 ADD SWAP2 JUMPDEST POP POP POP POP POP SWAP1 DUP1 PUSH1 0x1 ADD DUP1 SLOAD PUSH2 0x527 SWAP1 PUSH2 0x82C JUMP JUMPDEST DUP1 PUSH1 0x1F ADD PUSH1 0x20 DUP1 SWAP2 DIV MUL PUSH1 0x20 ADD PUSH1 0x40 MLOAD SWAP1 DUP2 ADD PUSH1 0x40 MSTORE DUP1 SWAP3 SWAP2 SWAP1 DUP2 DUP2 MSTORE PUSH1 0x20 ADD DUP3 DUP1 SLOAD PUSH2 0x553 SWAP1 PUSH2 0x82C JUMP JUMPDEST DUP1 ISZERO PUSH2 0x59E JUMPI DUP1 PUSH1 0x1F LT PUSH2 0x575 JUMPI PUSH2 0x100 DUP1 DUP4 SLOAD DIV MUL DUP4 MSTORE SWAP2 PUSH1 0x20 ADD SWAP2 PUSH2 0x59E JUMP JUMPDEST DUP3 ADD SWAP2 SWAP1 PUSH0 MSTORE PUSH1 0x20 PUSH0 KECCAK256 SWAP1 JUMPDEST DUP2 SLOAD DUP2 MSTORE SWAP1 PUSH1 0x1 ADD SWAP1 PUSH1 0x20 ADD DUP1 DUP4 GT PUSH2 0x581 JUMPI DUP3 SWAP1 SUB PUSH1 0x1F AND DUP3 ADD SWAP2 JUMPDEST POP POP POP POP POP SWAP1 DUP1 PUSH1 0x2 ADD DUP1 SLOAD PUSH2 0x5B3 SWAP1 PUSH2 0x82C JUMP JUMPDEST DUP1 PUSH1 0x1F ADD PUSH1 0x20 DUP1 SWAP2 DIV MUL PUSH1 0x20 ADD PUSH1 0x40 MLOAD SWAP1 DUP2 ADD PUSH1 0x40 MSTORE DUP1 SWAP3 SWAP2 SWAP1 DUP2 DUP2 MSTORE PUSH1 0x20 ADD DUP3 DUP1 SLOAD PUSH2 0x5DF SWAP1 PUSH2 0x82C JUMP JUMPDEST DUP1 ISZERO PUSH2 0x62A JUMPI DUP1 PUSH1 0x1F LT PUSH2 0x601 JUMPI PUSH2 0x100 DUP1 DUP4 SLOAD DIV MUL DUP4 MSTORE SWAP2 PUSH1 0x20 ADD SWAP2 PUSH2 0x62A JUMP JUMPDEST DUP3 ADD SWAP2 SWAP1 PUSH0 MSTORE PUSH1 0x20 PUSH0 KECCAK256 SWAP1 JUMPDEST DUP2 SLOAD DUP2 MSTORE SWAP1 PUSH1 0x1 ADD SWAP1 PUSH1 0x20 ADD DUP1 DUP4 GT PUSH2 0x60D JUMPI DUP3 SWAP1 SUB PUSH1 0x1F AND DUP3 ADD SWAP2 JUMPDEST POP POP POP POP PUSH1 0x3 DUP4 ADD SLOAD PUSH1 0x4 SWAP1 SWAP4 ADD SLOAD SWAP2 SWAP3 SWAP2 PUSH1 0xFF AND SWAP1 POP DUP6 JUMP JUMPDEST PUSH0 PUSH1 0x20 DUP3 DUP5 SUB SLT ISZERO PUSH2 0x654 JUMPI PUSH0 PUSH0 REVERT JUMPDEST POP CALLDATALOAD SWAP2 SWAP1 POP JUMP JUMPDEST PUSH4 0x4E487B71 PUSH1 0xE0 SHL PUSH0 MSTORE PUSH1 0x41 PUSH1 0x4 MSTORE PUSH1 0x24 PUSH0 REVERT JUMPDEST PUSH0 DUP3 PUSH1 0x1F DUP4 ADD SLT PUSH2 0x67E JUMPI PUSH0 PUSH0 REVERT JUMPDEST DUP2 CALLDATALOAD PUSH8 0xFFFFFFFFFFFFFFFF DUP2 GT ISZERO PUSH2 0x698 JUMPI PUSH2 0x698 PUSH2 0x65B JUMP JUMPDEST PUSH1 0x40 MLOAD PUSH1 0x1F DUP3 ADD PUSH1 0x1F NOT SWAP1 DUP2 AND PUSH1 0x3F ADD AND DUP2 ADD PUSH8 0xFFFFFFFFFFFFFFFF DUP2 GT DUP3 DUP3 LT OR ISZERO PUSH2 0x6C7 JUMPI PUSH2 0x6C7 PUSH2 0x65B JUMP JUMPDEST PUSH1 0x40 MSTORE DUP2 DUP2 MSTORE DUP4 DUP3 ADD PUSH1 0x20 ADD DUP6 LT ISZERO PUSH2 0x6DE JUMPI PUSH0 PUSH0 REVERT JUMPDEST DUP2 PUSH1 0x20 DUP6 ADD PUSH1 0x20 DUP4 ADD CALLDATACOPY PUSH0 SWAP2 DUP2 ADD PUSH1 0x20 ADD SWAP2 SWAP1 SWAP2 MSTORE SWAP4 SWAP3 POP POP POP JUMP JUMPDEST PUSH0 PUSH0 PUSH0 PUSH1 0x60 DUP5 DUP7 SUB SLT ISZERO PUSH2 0x70C JUMPI PUSH0 PUSH0 REVERT JUMPDEST DUP4 CALLDATALOAD PUSH8 0xFFFFFFFFFFFFFFFF DUP2 GT ISZERO PUSH2 0x722 JUMPI PUSH0 PUSH0 REVERT JUMPDEST PUSH2 0x72E DUP7 DUP3 DUP8 ADD PUSH2 0x66F JUMP JUMPDEST SWAP4 POP POP PUSH1 0x20 DUP5 ADD CALLDATALOAD PUSH8 0xFFFFFFFFFFFFFFFF DUP2 GT ISZERO PUSH2 0x74A JUMPI PUSH0 PUSH0 REVERT JUMPDEST PUSH2 0x756 DUP7 DUP3 DUP8 ADD PUSH2 0x66F JUMP JUMPDEST SWAP3 POP POP PUSH1 0x40 DUP5 ADD CALLDATALOAD PUSH8 0xFFFFFFFFFFFFFFFF DUP2 GT ISZERO PUSH2 0x772 JUMPI PUSH0 PUSH0 REVERT JUMPDEST PUSH2 0x77E DUP7 DUP3 DUP8 ADD PUSH2 0x66F JUMP JUMPDEST SWAP2 POP POP SWAP3 POP SWAP3 POP SWAP3 JUMP JUMPDEST PUSH0 DUP2 MLOAD DUP1 DUP5 MSTORE DUP1 PUSH1 0x20 DUP5 ADD PUSH1 0x20 DUP7 ADD MCOPY PUSH0 PUSH1 0x20 DUP3 DUP7 ADD ADD MSTORE PUSH1 0x20 PUSH1 0x1F NOT PUSH1 0x1F DUP4 ADD AND DUP6 ADD ADD SWAP2 POP POP SWAP3 SWAP2 POP POP JUMP JUMPDEST PUSH1 0xA0 DUP2 MSTORE PUSH0 PUSH2 0x7C8 PUSH1 0xA0 DUP4 ADD DUP9 PUSH2 0x788 JUMP JUMPDEST DUP3 DUP2 SUB PUSH1 0x20 DUP5 ADD MSTORE PUSH2 0x7DA DUP2 DUP9 PUSH2 0x788 JUMP JUMPDEST SWAP1 POP DUP3 DUP2 SUB PUSH1 0x40 DUP5 ADD MSTORE PUSH2 0x7EE DUP2 DUP8 PUSH2 0x788 JUMP JUMPDEST PUSH1 0x60 DUP5 ADD SWAP6 SWAP1 SWAP6 MSTORE POP POP SWAP1 ISZERO ISZERO PUSH1 0x80 SWAP1 SWAP2 ADD MSTORE SWAP4 SWAP3 POP POP POP JUMP JUMPDEST PUSH0 PUSH1 0x1 DUP3 ADD PUSH2 0x825 JUMPI PUSH4 0x4E487B71 PUSH1 0xE0 SHL PUSH0 MSTORE PUSH1 0x11 PUSH1 0x4 MSTORE PUSH1 0x24 PUSH0 REVERT JUMPDEST POP PUSH1 0x1 ADD SWAP1 JUMP JUMPDEST PUSH1 0x1 DUP2 DUP2 SHR SWAP1 DUP3 AND DUP1 PUSH2 0x840 JUMPI PUSH1 0x7F DUP3 AND SWAP2 POP JUMPDEST PUSH1 0x20 DUP3 LT DUP2 SUB PUSH2 0x85E JUMPI PUSH4 0x4E487B71 PUSH1 0xE0 SHL PUSH0 MSTORE PUSH1 0x22 PUSH1 0x4 MSTORE PUSH1 0x24 PUSH0 REVERT JUMPDEST POP SWAP2 SWAP1 POP JUMP JUMPDEST PUSH1 0x1F DUP3 GT ISZERO PUSH2 0x8AB JUMPI DUP1 PUSH0 MSTORE PUSH1 0x20 PUSH0 KECCAK256 PUSH1 0x1F DUP5 ADD PUSH1 0x5 SHR DUP2 ADD PUSH1 0x20 DUP6 LT ISZERO PUSH2 0x889 JUMPI POP DUP1 JUMPDEST PUSH1 0x1F DUP5 ADD PUSH1 0x5 SHR DUP3 ADD SWAP2 POP JUMPDEST DUP2 DUP2 LT ISZERO PUSH2 0x8A8 JUMPI PUSH0 DUP2 SSTORE PUSH1 0x1 ADD PUSH2 0x895 JUMP JUMPDEST POP POP JUMPDEST POP POP POP JUMP JUMPDEST DUP2 MLOAD PUSH8 0xFFFFFFFFFFFFFFFF DUP2 GT ISZERO PUSH2 0x8CA JUMPI PUSH2 0x8CA PUSH2 0x65B JUMP JUMPDEST PUSH2 0x8DE DUP2 PUSH2 0x8D8 DUP5 SLOAD PUSH2 0x82C JUMP JUMPDEST DUP5 PUSH2 0x864 JUMP JUMPDEST PUSH1 0x20 PUSH1 0x1F DUP3 GT PUSH1 0x1 DUP2 EQ PUSH2 0x910 JUMPI PUSH0 DUP4 ISZERO PUSH2 0x8F9 JUMPI POP DUP5 DUP3 ADD MLOAD JUMPDEST PUSH0 NOT PUSH1 0x3 DUP6 SWAP1 SHL SHR NOT AND PUSH1 0x1 DUP5 SWAP1 SHL OR DUP5 SSTORE PUSH2 0x8A8 JUMP JUMPDEST PUSH0 DUP5 DUP2 MSTORE PUSH1 0x20 DUP2 KECCAK256 PUSH1 0x1F NOT DUP6 AND SWAP2 JUMPDEST DUP3 DUP2 LT ISZERO PUSH2 0x93F JUMPI DUP8 DUP6 ADD MLOAD DUP3 SSTORE PUSH1 0x20 SWAP5 DUP6 ADD SWAP5 PUSH1 0x1 SWAP1 SWAP3 ADD SWAP2 ADD PUSH2 0x91F JUMP JUMPDEST POP DUP5 DUP3 LT ISZERO PUSH2 0x95C JUMPI DUP7 DUP5 ADD MLOAD PUSH0 NOT PUSH1 0x3 DUP8 SWAP1 SHL PUSH1 0xF8 AND SHR NOT AND DUP2 SSTORE JUMPDEST POP POP POP POP PUSH1 0x1 SWAP1 DUP2 SHL ADD SWAP1 SSTORE POP JUMP JUMPDEST PUSH1 0x60 DUP2 MSTORE PUSH0 PUSH2 0x97D PUSH1 0x60 DUP4 ADD DUP7 PUSH2 0x788 JUMP JUMPDEST DUP3 DUP2 SUB PUSH1 0x20 DUP5 ADD MSTORE PUSH2 0x98F DUP2 DUP7 PUSH2 0x788 JUMP JUMPDEST SWAP1 POP DUP3 DUP2 SUB PUSH1 0x40 DUP5 ADD MSTORE PUSH2 0x9A3 DUP2 DUP6 PUSH2 0x788 JUMP JUMPDEST SWAP7 SWAP6 POP POP POP POP POP POP JUMP INVALID LOG2 PUSH5 0x6970667358 0x22 SLT KECCAK256 0xF6 DUP5 0xB5 EXTCALL 0xC4 JUMPF 0x88A3 0xD5 0xB3 0xE 0xFC LOG1 PUSH10 0xDF1B08AF7B607EA83A06 0x28 CALL 0x28 DUP5 0x2B 0xED EOFCREATE 0xAC PUSH5 0x736F6C6343 STOP ADDMOD SAR STOP CALLER "
		},
		"gasEstimates": {
			"creation": {
				"codeDepositCost": "506200",
				"executionCost": "541",
				"totalCost": "506741"
			},
			"external": {
				"credentialCount()": "2338",
				"credentials(uint256)": "infinite",
				"getCredential(uint256)": "infinite",
				"issueCredential(string,string,string)": "infinite",
				"revokeCredential(uint256)": "27831"
			}
		},
		"methodIdentifiers": {
			"credentialCount()": "cd0e35b9",
			"credentials(uint256)": "e0574e3f",
			"getCredential(uint256)": "8dd18d2d",
			"issueCredential(string,string,string)": "8b1afa80",
			"revokeCredential(uint256)": "1b87278d"
		}
	},
	"abi": [
		{
			"anonymous": false,
			"inputs": [
				{
					"indexed": true,
					"internalType": "uint256",
					"name": "credentialId",
					"type": "uint256"
				},
				{
					"indexed": false,
					"internalType": "string",
					"name": "credentialType",
					"type": "string"
				},
				{
					"indexed": false,
					"internalType": "string",
					"name": "issuer",
					"type": "string"
				},
				{
					"indexed": false,
					"internalType": "string",
					"name": "recipient",
					"type": "string"
				}
			],
			"name": "CredentialIssued",
			"type": "event"
		},
		{
			"anonymous": false,
			"inputs": [
				{
					"indexed": true,
					"internalType": "uint256",
					"name": "credentialId",
					"type": "uint256"
				}
			],
			"name": "CredentialRevoked",
			"type": "event"
		},
		{
			"inputs": [],
			"name": "credentialCount",
			"outputs": [
				{
					"internalType": "uint256",
					"name": "",
					"type": "uint256"
				}
			],
			"stateMutability": "view",
			"type": "function"
		},
		{
			"inputs": [
				{
					"internalType": "uint256",
					"name": "",
					"type": "uint256"
				}
			],
			"name": "credentials",
			"outputs": [
				{
					"internalType": "string",
					"name": "credentialType",
					"type": "string"
				},
				{
					"internalType": "string",
					"name": "issuer",
					"type": "string"
				},
				{
					"internalType": "string",
					"name": "recipient",
					"type": "string"
				},
				{
					"internalType": "uint256",
					"name": "issueDate",
					"type": "uint256"
				},
				{
					"internalType": "bool",
					"name": "valid",
					"type": "bool"
				}
			],
			"stateMutability": "view",
			"type": "function"
		},
		{
			"inputs": [
				{
					"internalType": "uint256",
					"name": "_credentialId",
					"type": "uint256"
				}
			],
			"name": "getCredential",
			"outputs": [
				{
					"internalType": "string",
					"name": "credentialType",
					"type": "string"
				},
				{
					"internalType": "string",
					"name": "issuer",
					"type": "string"
				},
				{
					"internalType": "string",
					"name": "recipient",
					"type": "string"
				},
				{
					"internalType": "uint256",
					"name": "issueDate",
					"type": "uint256"
				},
				{
					"internalType": "bool",
					"name": "valid",
					"type": "bool"
				}
			],
			"stateMutability": "view",
			"type": "function"
		},
		{
			"inputs": [
				{
					"internalType": "string",
					"name": "_credentialType",
					"type": "string"
				},
				{
					"internalType": "string",
					"name": "_issuer",
					"type": "string"
				},
				{
					"internalType": "string",
					"name": "_recipient",
					"type": "string"
				}
			],
			"name": "issueCredential",
			"outputs": [],
			"stateMutability": "nonpayable",
			"type": "function"
		},
		{
			"inputs": [
				{
					"internalType": "uint256",
					"name": "_credentialId",
					"type": "uint256"
				}
			],
			"name": "revokeCredential",
			"outputs": [],
			"stateMutability": "nonpayable",
			"type": "function"
		}
	]
}