{
	"data": {
		"bytecode": {
			"linkReferences": {},
			"object": "6080604052348015600e575f5ffd5b5061095d8061001c5f395ff3fe608060405234801561000f575f5ffd5b506004361061003f575f3560e01c80634ef5a017146100435780636db3328f1461006c578063de234a5914610090575b5f5ffd5b610056610051366004610525565b6100a5565b6040516100639190610573565b60405180910390f35b61007f61007a366004610626565b610260565b60405161006395949392919061064e565b6100a361009e366004610737565b6103c1565b005b6001600160a01b0381165f90815260208181526040808320805482518185028101850190935280835260609492939192909184015b82821015610255575f8481526020908190206040805160a081019091526005850290910180546001600160a01b031682526001810180549293919291840191610122906107b3565b80601f016020809104026020016040519081016040528092919081815260200182805461014e906107b3565b80156101995780601f1061017057610100808354040283529160200191610199565b820191905f5260205f20905b81548152906001019060200180831161017c57829003601f168201915b505050505081526020016002820180546101b2906107b3565b80601f01602080910402602001604051908101604052809291908181526020018280546101de906107b3565b80156102295780601f1061020057610100808354040283529160200191610229565b820191905f5260205f20905b81548152906001019060200180831161020c57829003601f168201915b5050505050815260200160038201548152602001600482015481525050815260200190600101906100da565b505050509050919050565b5f602052815f5260405f208181548110610278575f80fd5b5f918252602090912060059091020180546001820180546001600160a01b0390921694509192506102a8906107b3565b80601f01602080910402602001604051908101604052809291908181526020018280546102d4906107b3565b801561031f5780601f106102f65761010080835404028352916020019161031f565b820191905f5260205f20905b81548152906001019060200180831161030257829003601f168201915b505050505090806002018054610334906107b3565b80601f0160208091040260200160405190810160405280929190818152602001828054610360906107b3565b80156103ab5780601f10610382576101008083540402835291602001916103ab565b820191905f5260205f20905b81548152906001019060200180831161038e57829003601f168201915b5050505050908060030154908060040154905085565b600a8111156104165760405162461bcd60e51b815260206004820152601f60248201527f526174696e67206d757374206265206265747765656e203020616e6420313000604482015260640160405180910390fd5b6001600160a01b038481165f81815260208181526040808320815160a0810183529485528483018981529185018890526060850187905242608086015280546001808201835591855292909320845160059093020180546001600160a01b0319169290951691909117845551919291908201906104939082610837565b50604082015160028201906104a89082610837565b5060608201518160030155608082015181600401555050836001600160a01b03167f52d91cca2e0d51cc49e3b4d4ccde885e954d70d9c92aa3043b5b8695497847438484846040516104fc939291906108f2565b60405180910390a250505050565b80356001600160a01b0381168114610520575f5ffd5b919050565b5f60208284031215610535575f5ffd5b61053e8261050a565b9392505050565b5f81518084528060208401602086015e5f602082860101526020601f19601f83011685010191505092915050565b5f602082016020835280845180835260408501915060408160051b8601019250602086015f5b8281101561061a57868503603f19018452815180516001600160a01b0316865260208082015160a0918801829052906105d490880182610545565b9050604082015187820360408901526105ed8282610545565b606084810151908a0152608093840151939098019290925250506020938401939190910190600101610599565b50929695505050505050565b5f5f60408385031215610637575f5ffd5b6106408361050a565b946020939093013593505050565b6001600160a01b038616815260a0602082018190525f9061067190830187610545565b82810360408401526106838187610545565b60608401959095525050608001529392505050565b634e487b7160e01b5f52604160045260245ffd5b5f82601f8301126106bb575f5ffd5b813567ffffffffffffffff8111156106d5576106d5610698565b604051601f8201601f19908116603f0116810167ffffffffffffffff8111828210171561070457610704610698565b60405281815283820160200185101561071b575f5ffd5b816020850160208301375f918101602001919091529392505050565b5f5f5f5f6080858703121561074a575f5ffd5b6107538561050a565b9350602085013567ffffffffffffffff81111561076e575f5ffd5b61077a878288016106ac565b935050604085013567ffffffffffffffff811115610796575f5ffd5b6107a2878288016106ac565b949793965093946060013593505050565b600181811c908216806107c757607f821691505b6020821081036107e557634e487b7160e01b5f52602260045260245ffd5b50919050565b601f82111561083257805f5260205f20601f840160051c810160208510156108105750805b601f840160051c820191505b8181101561082f575f815560010161081c565b50505b505050565b815167ffffffffffffffff81111561085157610851610698565b6108658161085f84546107b3565b846107eb565b6020601f821160018114610897575f83156108805750848201515b5f19600385901b1c1916600184901b17845561082f565b5f84815260208120601f198516915b828110156108c657878501518255602094850194600190920191016108a6565b50848210156108e357868401515f19600387901b60f8161c191681555b50505050600190811b01905550565b606081525f6109046060830186610545565b82810360208401526109168186610545565b91505082604083015294935050505056fea264697066735822122053834c90276169db10a7772c907472c0a607f57825110bd3c102efdf62338a2364736f6c634300081d0033",
			"opcodes": "PUSH1 0x80 PUSH1 0x40 MSTORE CALLVALUE DUP1 ISZERO PUSH1 0xE JUMPI PUSH0 PUSH0 REVERT JUMPDEST POP PUSH2 0x95D DUP1 PUSH2 0x1C PUSH0 CODECOPY PUSH0 RETURN INVALID PUSH1 0x80 PUSH1 0x40 MSTORE CALLVALUE DUP1 ISZERO PUSH2 0xF JUMPI PUSH0 PUSH0 REVERT JUMPDEST POP PUSH1 0x4 CALLDATASIZE LT PUSH2 0x3F JUMPI PUSH0 CALLDATALOAD PUSH1 0xE0 SHR DUP1 PUSH4 0x4EF5A017 EQ PUSH2 0x43 JUMPI DUP1 PUSH4 0x6DB3328F EQ PUSH2 0x6C JUMPI DUP1 PUSH4 0xDE234A59 EQ PUSH2 0x90 JUMPI JUMPDEST PUSH0 PUSH0 REVERT JUMPDEST PUSH2 0x56 PUSH2 0x51 CALLDATASIZE PUSH1 0x4 PUSH2 0x525 JUMP JUMPDEST PUSH2 0xA5 JUMP JUMPDEST PUSH1 0x40 MLOAD PUSH2 0x63 SWAP2 SWAP1 PUSH2 0x573 JUMP JUMPDEST PUSH1 0x40 MLOAD DUP1 SWAP2 SUB SWAP1 RETURN JUMPDEST PUSH2 0x7F PUSH2 0x7A CALLDATASIZE PUSH1 0x4 PUSH2 0x626 JUMP JUMPDEST PUSH2 0x260 JUMP JUMPDEST PUSH1 0x40 MLOAD PUSH2 0x63 SWAP6 SWAP5 SWAP4 SWAP3 SWAP2 SWAP1 PUSH2 0x64E JUMP JUMPDEST PUSH2 0xA3 PUSH2 0x9E CALLDATASIZE PUSH1 0x4 PUSH2 0x737 JUMP JUMPDEST PUSH2 0x3C1 JUMP JUMPDEST STOP JUMPDEST PUSH1 0x1 PUSH1 0x1 PUSH1 0xA0 SHL SUB DUP2 AND PUSH0 SWAP1 DUP2 MSTORE PUSH1 0x20 DUP2 DUP2 MSTORE PUSH1 0x40 DUP1 DUP4 KECCAK256 DUP1 SLOAD DUP3 MLOAD DUP2 DUP6 MUL DUP2 ADD DUP6 ADD SWAP1 SWAP4 MSTORE DUP1 DUP4 MSTORE PUSH1 0x60 SWAP5 SWAP3 SWAP4 SWAP2 SWAP3 SWAP1 SWAP2 DUP5 ADD JUMPDEST DUP3 DUP3 LT ISZERO PUSH2 0x255 JUMPI PUSH0 DUP5 DUP2 MSTORE PUSH1 0x20 SWAP1 DUP2 SWAP1 KECCAK256 PUSH1 0x40 DUP1 MLOAD PUSH1 0xA0 DUP2 ADD SWAP1 SWAP2 MSTORE PUSH1 0x5 DUP6 MUL SWAP1 SWAP2 ADD DUP1 SLOAD PUSH1 0x1 PUSH1 0x1 PUSH1 0xA0 SHL SUB AND DUP3 MSTORE PUSH1 0x1 DUP2 ADD DUP1 SLOAD SWAP3 SWAP4 SWAP2 SWAP3 SWAP2 DUP5 ADD SWAP2 PUSH2 0x122 SWAP1 PUSH2 0x7B3 JUMP JUMPDEST DUP1 PUSH1 0x1F ADD PUSH1 0x20 DUP1 SWAP2 DIV MUL PUSH1 0x20 ADD PUSH1 0x40 MLOAD SWAP1 DUP2 ADD PUSH1 0x40 MSTORE DUP1 SWAP3 SWAP2 SWAP1 DUP2 DUP2 MSTORE PUSH1 0x20 ADD DUP3 DUP1 SLOAD PUSH2 0x14E SWAP1 PUSH2 0x7B3 JUMP JUMPDEST DUP1 ISZERO PUSH2 0x199 JUMPI DUP1 PUSH1 0x1F LT PUSH2 0x170 JUMPI PUSH2 0x100 DUP1 DUP4 SLOAD DIV MUL DUP4 MSTORE SWAP2 PUSH1 0x20 ADD SWAP2 PUSH2 0x199 JUMP JUMPDEST DUP3 ADD SWAP2 SWAP1 PUSH0 MSTORE PUSH1 0x20 PUSH0 KECCAK256 SWAP1 JUMPDEST DUP2 SLOAD DUP2 MSTORE SWAP1 PUSH1 0x1 ADD SWAP1 PUSH1 0x20 ADD DUP1 DUP4 GT PUSH2 0x17C JUMPI DUP3 SWAP1 SUB PUSH1 0x1F AND DUP3 ADD SWAP2 JUMPDEST POP POP POP POP POP DUP2 MSTORE PUSH1 0x20 ADD PUSH1 0x2 DUP3 ADD DUP1 SLOAD PUSH2 0x1B2 SWAP1 PUSH2 0x7B3 JUMP JUMPDEST DUP1 PUSH1 0x1F ADD PUSH1 0x20 DUP1 SWAP2 DIV MUL PUSH1 0x20 ADD PUSH1 0x40 MLOAD SWAP1 DUP2 ADD PUSH1 0x40 MSTORE DUP1 SWAP3 SWAP2 SWAP1 DUP2 DUP2 MSTORE PUSH1 0x20 ADD DUP3 DUP1 SLOAD PUSH2 0x1DE SWAP1 PUSH2 0x7B3 JUMP JUMPDEST DUP1 ISZERO PUSH2 0x229 JUMPI DUP1 PUSH1 0x1F LT PUSH2 0x200 JUMPI PUSH2 0x100 DUP1 DUP4 SLOAD DIV MUL DUP4 MSTORE SWAP2 PUSH1 0x20 ADD SWAP2 PUSH2 0x229 JUMP JUMPDEST DUP3 ADD SWAP2 SWAP1 PUSH0 MSTORE PUSH1 0x20 PUSH0 KECCAK256 SWAP1 JUMPDEST DUP2 SLOAD DUP2 MSTORE SWAP1 PUSH1 0x1 ADD SWAP1 PUSH1 0x20 ADD DUP1 DUP4 GT PUSH2 0x20C JUMPI DUP3 SWAP1 SUB PUSH1 0x1F AND DUP3 ADD SWAP2 JUMPDEST POP POP POP POP POP DUP2 MSTORE PUSH1 0x20 ADD PUSH1 0x3 DUP3 ADD SLOAD DUP2 MSTORE PUSH1 0x20 ADD PUSH1 0x4 DUP3 ADD SLOAD DUP2 MSTORE POP POP DUP2 MSTORE PUSH1 0x20 ADD SWAP1 PUSH1 0x1 ADD SWAP1 PUSH2 0xDA JUMP JUMPDEST POP POP POP POP SWAP1 POP SWAP2 SWAP1 POP JUMP JUMPDEST PUSH0 PUSH1 0x20 MSTORE DUP2 PUSH0 MSTORE PUSH1 0x40 PUSH0 KECCAK256 DUP2 DUP2 SLOAD DUP2 LT PUSH2 0x278 JUMPI PUSH0 DUP1 REVERT JUMPDEST PUSH0 SWAP2 DUP3 MSTORE PUSH1 0x20 SWAP1 SWAP2 KECCAK256 PUSH1 0x5 SWAP1 SWAP2 MUL ADD DUP1 SLOAD PUSH1 0x1 DUP3 ADD DUP1 SLOAD PUSH1 0x1 PUSH1 0x1 PUSH1 0xA0 SHL SUB SWAP1 SWAP3 AND SWAP5 POP SWAP2 SWAP3 POP PUSH2 0x2A8 SWAP1 PUSH2 0x7B3 JUMP JUMPDEST DUP1 PUSH1 0x1F ADD PUSH1 0x20 DUP1 SWAP2 DIV MUL PUSH1 0x20 ADD PUSH1 0x40 MLOAD SWAP1 DUP2 ADD PUSH1 0x40 MSTORE DUP1 SWAP3 SWAP2 SWAP1 DUP2 DUP2 MSTORE PUSH1 0x20 ADD DUP3 DUP1 SLOAD PUSH2 0x2D4 SWAP1 PUSH2 0x7B3 JUMP JUMPDEST DUP1 ISZERO PUSH2 0x31F JUMPI DUP1 PUSH1 0x1F LT PUSH2 0x2F6 JUMPI PUSH2 0x100 DUP1 DUP4 SLOAD DIV MUL DUP4 MSTORE SWAP2 PUSH1 0x20 ADD SWAP2 PUSH2 0x31F JUMP JUMPDEST DUP3 ADD SWAP2 SWAP1 PUSH0 MSTORE PUSH1 0x20 PUSH0 KECCAK256 SWAP1 JUMPDEST DUP2 SLOAD DUP2 MSTORE SWAP1 PUSH1 0x1 ADD SWAP1 PUSH1 0x20 ADD DUP1 DUP4 GT PUSH2 0x302 JUMPI DUP3 SWAP1 SUB PUSH1 0x1F AND DUP3 ADD SWAP2 JUMPDEST POP POP POP POP POP SWAP1 DUP1 PUSH1 0x2 ADD DUP1 SLOAD PUSH2 0x334 SWAP1 PUSH2 0x7B3 JUMP JUMPDEST DUP1 PUSH1 0x1F ADD PUSH1 0x20 DUP1 SWAP2 DIV MUL PUSH1 0x20 ADD PUSH1 0x40 MLOAD SWAP1 DUP2 ADD PUSH1 0x40 MSTORE DUP1 SWAP3 SWAP2 SWAP1 DUP2 DUP2 MSTORE PUSH1 0x20 ADD DUP3 DUP1 SLOAD PUSH2 0x360 SWAP1 PUSH2 0x7B3 JUMP JUMPDEST DUP1 ISZERO PUSH2 0x3AB JUMPI DUP1 PUSH1 0x1F LT PUSH2 0x382 JUMPI PUSH2 0x100 DUP1 DUP4 SLOAD DIV MUL DUP4 MSTORE SWAP2 PUSH1 0x20 ADD SWAP2 PUSH2 0x3AB JUMP JUMPDEST DUP3 ADD SWAP2 SWAP1 PUSH0 MSTORE PUSH1 0x20 PUSH0 KECCAK256 SWAP1 JUMPDEST DUP2 SLOAD DUP2 MSTORE SWAP1 PUSH1 0x1 ADD SWAP1 PUSH1 0x20 ADD DUP1 DUP4 GT PUSH2 0x38E JUMPI DUP3 SWAP1 SUB PUSH1 0x1F AND DUP3 ADD SWAP2 JUMPDEST POP POP POP POP POP SWAP1 DUP1 PUSH1 0x3 ADD SLOAD SWAP1 DUP1 PUSH1 0x4 ADD SLOAD SWAP1 POP DUP6 JUMP JUMPDEST PUSH1 0xA DUP2 GT ISZERO PUSH2 0x416 JUMPI PUSH1 0x40 MLOAD PUSH3 0x461BCD PUSH1 0xE5 SHL DUP2 MSTORE PUSH1 0x20 PUSH1 0x4 DUP3 ADD MSTORE PUSH1 0x1F PUSH1 0x24 DUP3 ADD MSTORE PUSH32 0x526174696E67206D757374206265206265747765656E203020616E6420313000 PUSH1 0x44 DUP3 ADD MSTORE PUSH1 0x64 ADD PUSH1 0x40 MLOAD DUP1 SWAP2 SUB SWAP1 REVERT JUMPDEST PUSH1 0x1 PUSH1 0x1 PUSH1 0xA0 SHL SUB DUP5 DUP2 AND PUSH0 DUP2 DUP2 MSTORE PUSH1 0x20 DUP2 DUP2 MSTORE PUSH1 0x40 DUP1 DUP4 KECCAK256 DUP2 MLOAD PUSH1 0xA0 DUP2 ADD DUP4 MSTORE SWAP5 DUP6 MSTORE DUP5 DUP4 ADD DUP10 DUP2 MSTORE SWAP2 DUP6 ADD DUP9 SWAP1 MSTORE PUSH1 0x60 DUP6 ADD DUP8 SWAP1 MSTORE TIMESTAMP PUSH1 0x80 DUP7 ADD MSTORE DUP1 SLOAD PUSH1 0x1 DUP1 DUP3 ADD DUP4 SSTORE SWAP2 DUP6 MSTORE SWAP3 SWAP1 SWAP4 KECCAK256 DUP5 MLOAD PUSH1 0x5 SWAP1 SWAP4 MUL ADD DUP1 SLOAD PUSH1 0x1 PUSH1 0x1 PUSH1 0xA0 SHL SUB NOT AND SWAP3 SWAP1 SWAP6 AND SWAP2 SWAP1 SWAP2 OR DUP5 SSTORE MLOAD SWAP2 SWAP3 SWAP2 SWAP1 DUP3 ADD SWAP1 PUSH2 0x493 SWAP1 DUP3 PUSH2 0x837 JUMP JUMPDEST POP PUSH1 0x40 DUP3 ADD MLOAD PUSH1 0x2 DUP3 ADD SWAP1 PUSH2 0x4A8 SWAP1 DUP3 PUSH2 0x837 JUMP JUMPDEST POP PUSH1 0x60 DUP3 ADD MLOAD DUP2 PUSH1 0x3 ADD SSTORE PUSH1 0x80 DUP3 ADD MLOAD DUP2 PUSH1 0x4 ADD SSTORE POP POP DUP4 PUSH1 0x1 PUSH1 0x1 PUSH1 0xA0 SHL SUB AND PUSH32 0x52D91CCA2E0D51CC49E3B4D4CCDE885E954D70D9C92AA3043B5B869549784743 DUP5 DUP5 DUP5 PUSH1 0x40 MLOAD PUSH2 0x4FC SWAP4 SWAP3 SWAP2 SWAP1 PUSH2 0x8F2 JUMP JUMPDEST PUSH1 0x40 MLOAD DUP1 SWAP2 SUB SWAP1 LOG2 POP POP POP POP JUMP JUMPDEST DUP1 CALLDATALOAD PUSH1 0x1 PUSH1 0x1 PUSH1 0xA0 SHL SUB DUP2 AND DUP2 EQ PUSH2 0x520 JUMPI PUSH0 PUSH0 REVERT JUMPDEST SWAP2 SWAP1 POP JUMP JUMPDEST PUSH0 PUSH1 0x20 DUP3 DUP5 SUB SLT ISZERO PUSH2 0x535 JUMPI PUSH0 PUSH0 REVERT JUMPDEST PUSH2 0x53E DUP3 PUSH2 0x50A JUMP JUMPDEST SWAP4 SWAP3 POP POP POP JUMP JUMPDEST PUSH0 DUP2 MLOAD DUP1 DUP5 MSTORE DUP1 PUSH1 0x20 DUP5 ADD PUSH1 0x20 DUP7 ADD MCOPY PUSH0 PUSH1 0x20 DUP3 DUP7 ADD ADD MSTORE PUSH1 0x20 PUSH1 0x1F NOT PUSH1 0x1F DUP4 ADD AND DUP6 ADD ADD SWAP2 POP POP SWAP3 SWAP2 POP POP JUMP JUMPDEST PUSH0 PUSH1 0x20 DUP3 ADD PUSH1 0x20 DUP4 MSTORE DUP1 DUP5 MLOAD DUP1 DUP4 MSTORE PUSH1 0x40 DUP6 ADD SWAP2 POP PUSH1 0x40 DUP2 PUSH1 0x5 SHL DUP7 ADD ADD SWAP3 POP PUSH1 0x20 DUP7 ADD PUSH0 JUMPDEST DUP3 DUP2 LT ISZERO PUSH2 0x61A JUMPI DUP7 DUP6 SUB PUSH1 0x3F NOT ADD DUP5 MSTORE DUP2 MLOAD DUP1 MLOAD PUSH1 0x1 PUSH1 0x1 PUSH1 0xA0 SHL SUB AND DUP7 MSTORE PUSH1 0x20 DUP1 DUP3 ADD MLOAD PUSH1 0xA0 SWAP2 DUP9 ADD DUP3 SWAP1 MSTORE SWAP1 PUSH2 0x5D4 SWAP1 DUP9 ADD DUP3 PUSH2 0x545 JUMP JUMPDEST SWAP1 POP PUSH1 0x40 DUP3 ADD MLOAD DUP8 DUP3 SUB PUSH1 0x40 DUP10 ADD MSTORE PUSH2 0x5ED DUP3 DUP3 PUSH2 0x545 JUMP JUMPDEST PUSH1 0x60 DUP5 DUP2 ADD MLOAD SWAP1 DUP11 ADD MSTORE PUSH1 0x80 SWAP4 DUP5 ADD MLOAD SWAP4 SWAP1 SWAP9 ADD SWAP3 SWAP1 SWAP3 MSTORE POP POP PUSH1 0x20 SWAP4 DUP5 ADD SWAP4 SWAP2 SWAP1 SWAP2 ADD SWAP1 PUSH1 0x1 ADD PUSH2 0x599 JUMP JUMPDEST POP SWAP3 SWAP7 SWAP6 POP POP POP POP POP POP JUMP JUMPDEST PUSH0 PUSH0 PUSH1 0x40 DUP4 DUP6 SUB SLT ISZERO PUSH2 0x637 JUMPI PUSH0 PUSH0 REVERT JUMPDEST PUSH2 0x640 DUP4 PUSH2 0x50A JUMP JUMPDEST SWAP5 PUSH1 0x20 SWAP4 SWAP1 SWAP4 ADD CALLDATALOAD SWAP4 POP POP POP JUMP JUMPDEST PUSH1 0x1 PUSH1 0x1 PUSH1 0xA0 SHL SUB DUP7 AND DUP2 MSTORE PUSH1 0xA0 PUSH1 0x20 DUP3 ADD DUP2 SWAP1 MSTORE PUSH0 SWAP1 PUSH2 0x671 SWAP1 DUP4 ADD DUP8 PUSH2 0x545 JUMP JUMPDEST DUP3 DUP2 SUB PUSH1 0x40 DUP5 ADD MSTORE PUSH2 0x683 DUP2 DUP8 PUSH2 0x545 JUMP JUMPDEST PUSH1 0x60 DUP5 ADD SWAP6 SWAP1 SWAP6 MSTORE POP POP PUSH1 0x80 ADD MSTORE SWAP4 SWAP3 POP POP POP JUMP JUMPDEST PUSH4 0x4E487B71 PUSH1 0xE0 SHL PUSH0 MSTORE PUSH1 0x41 PUSH1 0x4 MSTORE PUSH1 0x24 PUSH0 REVERT JUMPDEST PUSH0 DUP3 PUSH1 0x1F DUP4 ADD SLT PUSH2 0x6BB JUMPI PUSH0 PUSH0 REVERT JUMPDEST DUP2 CALLDATALOAD PUSH8 0xFFFFFFFFFFFFFFFF DUP2 GT ISZERO PUSH2 0x6D5 JUMPI PUSH2 0x6D5 PUSH2 0x698 JUMP JUMPDEST PUSH1 0x40 MLOAD PUSH1 0x1F DUP3 ADD PUSH1 0x1F NOT SWAP1 DUP2 AND PUSH1 0x3F ADD AND DUP2 ADD PUSH8 0xFFFFFFFFFFFFFFFF DUP2 GT DUP3 DUP3 LT OR ISZERO PUSH2 0x704 JUMPI PUSH2 0x704 PUSH2 0x698 JUMP JUMPDEST PUSH1 0x40 MSTORE DUP2 DUP2 MSTORE DUP4 DUP3 ADD PUSH1 0x20 ADD DUP6 LT ISZERO PUSH2 0x71B JUMPI PUSH0 PUSH0 REVERT JUMPDEST DUP2 PUSH1 0x20 DUP6 ADD PUSH1 0x20 DUP4 ADD CALLDATACOPY PUSH0 SWAP2 DUP2 ADD PUSH1 0x20 ADD SWAP2 SWAP1 SWAP2 MSTORE SWAP4 SWAP3 POP POP POP JUMP JUMPDEST PUSH0 PUSH0 PUSH0 PUSH0 PUSH1 0x80 DUP6 DUP8 SUB SLT ISZERO PUSH2 0x74A JUMPI PUSH0 PUSH0 REVERT JUMPDEST PUSH2 0x753 DUP6 PUSH2 0x50A JUMP JUMPDEST SWAP4 POP PUSH1 0x20 DUP6 ADD CALLDATALOAD PUSH8 0xFFFFFFFFFFFFFFFF DUP2 GT ISZERO PUSH2 0x76E JUMPI PUSH0 PUSH0 REVERT JUMPDEST PUSH2 0x77A DUP8 DUP3 DUP9 ADD PUSH2 0x6AC JUMP JUMPDEST SWAP4 POP POP PUSH1 0x40 DUP6 ADD CALLDATALOAD PUSH8 0xFFFFFFFFFFFFFFFF DUP2 GT ISZERO PUSH2 0x796 JUMPI PUSH0 PUSH0 REVERT JUMPDEST PUSH2 0x7A2 DUP8 DUP3 DUP9 ADD PUSH2 0x6AC JUMP JUMPDEST SWAP5 SWAP8 SWAP4 SWAP7 POP SWAP4 SWAP5 PUSH1 0x60 ADD CALLDATALOAD SWAP4 POP POP POP JUMP JUMPDEST PUSH1 0x1 DUP2 DUP2 SHR SWAP1 DUP3 AND DUP1 PUSH2 0x7C7 JUMPI PUSH1 0x7F DUP3 AND SWAP2 POP JUMPDEST PUSH1 0x20 DUP3 LT DUP2 SUB PUSH2 0x7E5 JUMPI PUSH4 0x4E487B71 PUSH1 0xE0 SHL PUSH0 MSTORE PUSH1 0x22 PUSH1 0x4 MSTORE PUSH1 0x24 PUSH0 REVERT JUMPDEST POP SWAP2 SWAP1 POP JUMP JUMPDEST PUSH1 0x1F DUP3 GT ISZERO PUSH2 0x832 JUMPI DUP1 PUSH0 MSTORE PUSH1 0x20 PUSH0 KECCAK256 PUSH1 0x1F DUP5 ADD PUSH1 0x5 SHR DUP2 ADD PUSH1 0x20 DUP6 LT ISZERO PUSH2 0x810 JUMPI POP DUP1 JUMPDEST PUSH1 0x1F DUP5 ADD PUSH1 0x5 SHR DUP3 ADD SWAP2 POP JUMPDEST DUP2 DUP2 LT ISZERO PUSH2 0x82F JUMPI PUSH0 DUP2 SSTORE PUSH1 0x1 ADD PUSH2 0x81C JUMP JUMPDEST POP POP JUMPDEST POP POP POP JUMP JUMPDEST DUP2 MLOAD PUSH8 0xFFFFFFFFFFFFFFFF DUP2 GT ISZERO PUSH2 0x851 JUMPI PUSH2 0x851 PUSH2 0x698 JUMP JUMPDEST PUSH2 0x865 DUP2 PUSH2 0x85F DUP5 SLOAD PUSH2 0x7B3 JUMP JUMPDEST DUP5 PUSH2 0x7EB JUMP JUMPDEST PUSH1 0x20 PUSH1 0x1F DUP3 GT PUSH1 0x1 DUP2 EQ PUSH2 0x897 JUMPI PUSH0 DUP4 ISZERO PUSH2 0x880 JUMPI POP DUP5 DUP3 ADD MLOAD JUMPDEST PUSH0 NOT PUSH1 0x3 DUP6 SWAP1 SHL SHR NOT AND PUSH1 0x1 DUP5 SWAP1 SHL OR DUP5 SSTORE PUSH2 0x82F JUMP JUMPDEST PUSH0 DUP5 DUP2 MSTORE PUSH1 0x20 DUP2 KECCAK256 PUSH1 0x1F NOT DUP6 AND SWAP2 JUMPDEST DUP3 DUP2 LT ISZERO PUSH2 0x8C6 JUMPI DUP8 DUP6 ADD MLOAD DUP3 SSTORE PUSH1 0x20 SWAP5 DUP6 ADD SWAP5 PUSH1 0x1 SWAP1 SWAP3 ADD SWAP2 ADD PUSH2 0x8A6 JUMP JUMPDEST POP DUP5 DUP3 LT ISZERO PUSH2 0x8E3 JUMPI DUP7 DUP5 ADD MLOAD PUSH0 NOT PUSH1 0x3 DUP8 SWAP1 SHL PUSH1 0xF8 AND SHR NOT AND DUP2 SSTORE JUMPDEST POP POP POP POP PUSH1 0x1 SWAP1 DUP2 SHL ADD SWAP1 SSTORE POP JUMP JUMPDEST PUSH1 0x60 DUP2 MSTORE PUSH0 PUSH2 0x904 PUSH1 0x60 DUP4 ADD DUP7 PUSH2 0x545 JUMP JUMPDEST DUP3 DUP2 SUB PUSH1 0x20 DUP5 ADD MSTORE PUSH2 0x916 DUP2 DUP7 PUSH2 0x545 JUMP JUMPDEST SWAP2 POP POP DUP3 PUSH1 0x40 DUP4 ADD MSTORE SWAP5 SWAP4 POP POP POP POP JUMP INVALID LOG2 PUSH5 0x6970667358 0x22 SLT KECCAK256 MSTORE8 DUP4 0x4C SWAP1 0x27 PUSH2 0x69DB LT 0xA7 PUSH24 0x2C907472C0A607F57825110BD3C102EFDF62338A2364736F PUSH13 0x634300081D0033000000000000 "
		},
		"gasEstimates": {
			"creation": {
				"codeDepositCost": "479400",
				"executionCost": "509",
				"totalCost": "479909"
			},
			"external": {
				"getReviews(address)": "infinite",
				"reviews(address,uint256)": "infinite",
				"submitReview(address,string,string,uint256)": "infinite"
			}
		},
		"methodIdentifiers": {
			"getReviews(address)": "4ef5a017",
			"reviews(address,uint256)": "6db3328f",
			"submitReview(address,string,string,uint256)": "de234a59"
		}
	},
	"abi": [
		{
			"anonymous": false,
			"inputs": [
				{
					"indexed": true,
					"internalType": "address",
					"name": "employee",
					"type": "address"
				},
				{
					"indexed": false,
					"internalType": "string",
					"name": "reviewer",
					"type": "string"
				},
				{
					"indexed": false,
					"internalType": "string",
					"name": "comments",
					"type": "string"
				},
				{
					"indexed": false,
					"internalType": "uint256",
					"name": "rating",
					"type": "uint256"
				}
			],
			"name": "ReviewSubmitted",
			"type": "event"
		},
		{
			"inputs": [
				{
					"internalType": "address",
					"name": "_employee",
					"type": "address"
				}
			],
			"name": "getReviews",
			"outputs": [
				{
					"components": [
						{
							"internalType": "address",
							"name": "employee",
							"type": "address"
						},
						{
							"internalType": "string",
							"name": "reviewer",
							"type": "string"
						},
						{
							"internalType": "string",
							"name": "comments",
							"type": "string"
						},
						{
							"internalType": "uint256",
							"name": "rating",
							"type": "uint256"
						},
						{
							"internalType": "uint256",
							"name": "reviewDate",
							"type": "uint256"
						}
					],
					"internalType": "struct EmployeeReviewSystem.Review[]",
					"name": "",
					"type": "tuple[]"
				}
			],
			"stateMutability": "view",
			"type": "function"
		},
		{
			"inputs": [
				{
					"internalType": "address",
					"name": "",
					"type": "address"
				},
				{
					"internalType": "uint256",
					"name": "",
					"type": "uint256"
				}
			],
			"name": "reviews",
			"outputs": [
				{
					"internalType": "address",
					"name": "employee",
					"type": "address"
				},
				{
					"internalType": "string",
					"name": "reviewer",
					"type": "string"
				},
				{
					"internalType": "string",
					"name": "comments",
					"type": "string"
				},
				{
					"internalType": "uint256",
					"name": "rating",
					"type": "uint256"
				},
				{
					"internalType": "uint256",
					"name": "reviewDate",
					"type": "uint256"
				}
			],
			"stateMutability": "view",
			"type": "function"
		},
		{
			"inputs": [
				{
					"internalType": "address",
					"name": "_employee",
					"type": "address"
				},
				{
					"internalType": "string",
					"name": "_reviewer",
					"type": "string"
				},
				{
					"internalType": "string",
					"name": "_comments",
					"type": "string"
				},
				{
					"internalType": "uint256",
					"name": "_rating",
					"type": "uint256"
				}
			],
			"name": "submitReview",
			"outputs": [],
			"stateMutability": "nonpayable",
			"type": "function"
		}
	]
}