{
	"data": {
		"bytecode": {
			"linkReferences": {},
			"object": "6080604052348015600e575f5ffd5b506108f78061001c5f395ff3fe608060405234801561000f575f5ffd5b506004361061004a575f3560e01c80636ec67ec91461004e5780638120abed14610063578063bd85d86714610076578063edcfafe6146100a2575b5f5ffd5b61006161005c366004610607565b6100b5565b005b61006161007136600461066c565b6101ac565b61008961008436600461069a565b610288565b60405161009994939291906106df565b60405180910390f35b6100896100b036600461069a565b610418565b604080516080810182528381526020810183905233918101919091524260608201525f8054600181018255908052815160049091027f290decd9548b62a8d60345a988386fc84ba6bc95484008f6362f93160ef3e5630190819061011990826107a4565b506020820151600182019061012e90826107a4565b5060408201516002820180546001600160a01b0319166001600160a01b039092169190911790556060909101516003909101555f5461016f9060019061085f565b7f93a6050acf05d7ed7e5fcc4e841a8c7059359bfd830fec4ef0884bf55c716f7383336040516101a0929190610884565b60405180910390a25050565b5f5f83815481106101bf576101bf6108ad565b5f91825260209091206002600490920201908101549091506001600160a01b031633146102325760405162461bcd60e51b815260206004820152601e60248201527f4f6e6c7920617574686f722063616e207570646174652061727469636c650000604482015260640160405180910390fd5b6001810161024083826107a4565b5042600382015560405183907f923e70088971c7c1a3bab8c4ff966c9d7cd03eae6b501dd2af0d27f414e8a6539061027b9085903390610884565b60405180910390a2505050565b6060805f5f5f5f86815481106102a0576102a06108ad565b905f5260205f2090600402016040518060800160405290815f820180546102c690610720565b80601f01602080910402602001604051908101604052809291908181526020018280546102f290610720565b801561033d5780601f106103145761010080835404028352916020019161033d565b820191905f5260205f20905b81548152906001019060200180831161032057829003601f168201915b5050505050815260200160018201805461035690610720565b80601f016020809104026020016040519081016040528092919081815260200182805461038290610720565b80156103cd5780601f106103a4576101008083540402835291602001916103cd565b820191905f5260205f20905b8154815290600101906020018083116103b057829003601f168201915b505050918352505060028201546001600160a01b0316602080830191909152600390920154604091820152825191830151908301516060909301519199909850919650945092505050565b5f8181548110610426575f80fd5b905f5260205f2090600402015f91509050805f01805461044590610720565b80601f016020809104026020016040519081016040528092919081815260200182805461047190610720565b80156104bc5780601f10610493576101008083540402835291602001916104bc565b820191905f5260205f20905b81548152906001019060200180831161049f57829003601f168201915b5050505050908060010180546104d190610720565b80601f01602080910402602001604051908101604052809291908181526020018280546104fd90610720565b80156105485780601f1061051f57610100808354040283529160200191610548565b820191905f5260205f20905b81548152906001019060200180831161052b57829003601f168201915b50505050600283015460039093015491926001600160a01b031691905084565b634e487b7160e01b5f52604160045260245ffd5b5f82601f83011261058b575f5ffd5b813567ffffffffffffffff8111156105a5576105a5610568565b604051601f8201601f19908116603f0116810167ffffffffffffffff811182821017156105d4576105d4610568565b6040528181528382016020018510156105eb575f5ffd5b816020850160208301375f918101602001919091529392505050565b5f5f60408385031215610618575f5ffd5b823567ffffffffffffffff81111561062e575f5ffd5b61063a8582860161057c565b925050602083013567ffffffffffffffff811115610656575f5ffd5b6106628582860161057c565b9150509250929050565b5f5f6040838503121561067d575f5ffd5b82359150602083013567ffffffffffffffff811115610656575f5ffd5b5f602082840312156106aa575f5ffd5b5035919050565b5f81518084528060208401602086015e5f602082860101526020601f19601f83011685010191505092915050565b608081525f6106f160808301876106b1565b828103602084015261070381876106b1565b6001600160a01b0395909516604084015250506060015292915050565b600181811c9082168061073457607f821691505b60208210810361075257634e487b7160e01b5f52602260045260245ffd5b50919050565b601f82111561079f57805f5260205f20601f840160051c8101602085101561077d5750805b601f840160051c820191505b8181101561079c575f8155600101610789565b50505b505050565b815167ffffffffffffffff8111156107be576107be610568565b6107d2816107cc8454610720565b84610758565b6020601f821160018114610804575f83156107ed5750848201515b5f19600385901b1c1916600184901b17845561079c565b5f84815260208120601f198516915b828110156108335787850151825560209485019460019092019101610813565b508482101561085057868401515f19600387901b60f8161c191681555b50505050600190811b01905550565b8181038181111561087e57634e487b7160e01b5f52601160045260245ffd5b92915050565b604081525f61089660408301856106b1565b905060018060a01b03831660208301529392505050565b634e487b7160e01b5f52603260045260245ffdfea26469706673582212200c514803460d52fa732b39854813b6a369d5f0c00aa153567b58ae7f9cd9d71864736f6c634300081d0033",
			"opcodes": "PUSH1 0x80 PUSH1 0x40 MSTORE CALLVALUE DUP1 ISZERO PUSH1 0xE JUMPI PUSH0 PUSH0 REVERT JUMPDEST POP PUSH2 0x8F7 DUP1 PUSH2 0x1C PUSH0 CODECOPY PUSH0 RETURN INVALID PUSH1 0x80 PUSH1 0x40 MSTORE CALLVALUE DUP1 ISZERO PUSH2 0xF JUMPI PUSH0 PUSH0 REVERT JUMPDEST POP PUSH1 0x4 CALLDATASIZE LT PUSH2 0x4A JUMPI PUSH0 CALLDATALOAD PUSH1 0xE0 SHR DUP1 PUSH4 0x6EC67EC9 EQ PUSH2 0x4E JUMPI DUP1 PUSH4 0x8120ABED EQ PUSH2 0x63 JUMPI DUP1 PUSH4 0xBD85D867 EQ PUSH2 0x76 JUMPI DUP1 PUSH4 0xEDCFAFE6 EQ PUSH2 0xA2 JUMPI JUMPDEST PUSH0 PUSH0 REVERT JUMPDEST PUSH2 0x61 PUSH2 0x5C CALLDATASIZE PUSH1 0x4 PUSH2 0x607 JUMP JUMPDEST PUSH2 0xB5 JUMP JUMPDEST STOP JUMPDEST PUSH2 0x61 PUSH2 0x71 CALLDATASIZE PUSH1 0x4 PUSH2 0x66C JUMP JUMPDEST PUSH2 0x1AC JUMP JUMPDEST PUSH2 0x89 PUSH2 0x84 CALLDATASIZE PUSH1 0x4 PUSH2 0x69A JUMP JUMPDEST PUSH2 0x288 JUMP JUMPDEST PUSH1 0x40 MLOAD PUSH2 0x99 SWAP5 SWAP4 SWAP3 SWAP2 SWAP1 PUSH2 0x6DF JUMP JUMPDEST PUSH1 0x40 MLOAD DUP1 SWAP2 SUB SWAP1 RETURN JUMPDEST PUSH2 0x89 PUSH2 0xB0 CALLDATASIZE PUSH1 0x4 PUSH2 0x69A JUMP JUMPDEST PUSH2 0x418 JUMP JUMPDEST PUSH1 0x40 DUP1 MLOAD PUSH1 0x80 DUP2 ADD DUP3 MSTORE DUP4 DUP2 MSTORE PUSH1 0x20 DUP2 ADD DUP4 SWAP1 MSTORE CALLER SWAP2 DUP2 ADD SWAP2 SWAP1 SWAP2 MSTORE TIMESTAMP PUSH1 0x60 DUP3 ADD MSTORE PUSH0 DUP1 SLOAD PUSH1 0x1 DUP2 ADD DUP3 SSTORE SWAP1 DUP1 MSTORE DUP2 MLOAD PUSH1 0x4 SWAP1 SWAP2 MUL PUSH32 0x290DECD9548B62A8D60345A988386FC84BA6BC95484008F6362F93160EF3E563 ADD SWAP1 DUP2 SWAP1 PUSH2 0x119 SWAP1 DUP3 PUSH2 0x7A4 JUMP JUMPDEST POP PUSH1 0x20 DUP3 ADD MLOAD PUSH1 0x1 DUP3 ADD SWAP1 PUSH2 0x12E SWAP1 DUP3 PUSH2 0x7A4 JUMP JUMPDEST POP PUSH1 0x40 DUP3 ADD MLOAD PUSH1 0x2 DUP3 ADD DUP1 SLOAD PUSH1 0x1 PUSH1 0x1 PUSH1 0xA0 SHL SUB NOT AND PUSH1 0x1 PUSH1 0x1 PUSH1 0xA0 SHL SUB SWAP1 SWAP3 AND SWAP2 SWAP1 SWAP2 OR SWAP1 SSTORE PUSH1 0x60 SWAP1 SWAP2 ADD MLOAD PUSH1 0x3 SWAP1 SWAP2 ADD SSTORE PUSH0 SLOAD PUSH2 0x16F SWAP1 PUSH1 0x1 SWAP1 PUSH2 0x85F JUMP JUMPDEST PUSH32 0x93A6050ACF05D7ED7E5FCC4E841A8C7059359BFD830FEC4EF0884BF55C716F73 DUP4 CALLER PUSH1 0x40 MLOAD PUSH2 0x1A0 SWAP3 SWAP2 SWAP1 PUSH2 0x884 JUMP JUMPDEST PUSH1 0x40 MLOAD DUP1 SWAP2 SUB SWAP1 LOG2 POP POP JUMP JUMPDEST PUSH0 PUSH0 DUP4 DUP2 SLOAD DUP2 LT PUSH2 0x1BF JUMPI PUSH2 0x1BF PUSH2 0x8AD JUMP JUMPDEST PUSH0 SWAP2 DUP3 MSTORE PUSH1 0x20 SWAP1 SWAP2 KECCAK256 PUSH1 0x2 PUSH1 0x4 SWAP1 SWAP3 MUL ADD SWAP1 DUP2 ADD SLOAD SWAP1 SWAP2 POP PUSH1 0x1 PUSH1 0x1 PUSH1 0xA0 SHL SUB AND CALLER EQ PUSH2 0x232 JUMPI PUSH1 0x40 MLOAD PUSH3 0x461BCD PUSH1 0xE5 SHL DUP2 MSTORE PUSH1 0x20 PUSH1 0x4 DUP3 ADD MSTORE PUSH1 0x1E PUSH1 0x24 DUP3 ADD MSTORE PUSH32 0x4F6E6C7920617574686F722063616E207570646174652061727469636C650000 PUSH1 0x44 DUP3 ADD MSTORE PUSH1 0x64 ADD PUSH1 0x40 MLOAD DUP1 SWAP2 SUB SWAP1 REVERT JUMPDEST PUSH1 0x1 DUP2 ADD PUSH2 0x240 DUP4 DUP3 PUSH2 0x7A4 JUMP JUMPDEST POP TIMESTAMP PUSH1 0x3 DUP3 ADD SSTORE PUSH1 0x40 MLOAD DUP4 SWAP1 PUSH32 0x923E70088971C7C1A3BAB8C4FF966C9D7CD03EAE6B501DD2AF0D27F414E8A653 SWAP1 PUSH2 0x27B SWAP1 DUP6 SWAP1 CALLER SWAP1 PUSH2 0x884 JUMP JUMPDEST PUSH1 0x40 MLOAD DUP1 SWAP2 SUB SWAP1 LOG2 POP POP POP JUMP JUMPDEST PUSH1 0x60 DUP1 PUSH0 PUSH0 PUSH0 PUSH0 DUP7 DUP2 SLOAD DUP2 LT PUSH2 0x2A0 JUMPI PUSH2 0x2A0 PUSH2 0x8AD JUMP JUMPDEST SWAP1 PUSH0 MSTORE PUSH1 0x20 PUSH0 KECCAK256 SWAP1 PUSH1 0x4 MUL ADD PUSH1 0x40 MLOAD DUP1 PUSH1 0x80 ADD PUSH1 0x40 MSTORE SWAP1 DUP2 PUSH0 DUP3 ADD DUP1 SLOAD PUSH2 0x2C6 SWAP1 PUSH2 0x720 JUMP JUMPDEST DUP1 PUSH1 0x1F ADD PUSH1 0x20 DUP1 SWAP2 DIV MUL PUSH1 0x20 ADD PUSH1 0x40 MLOAD SWAP1 DUP2 ADD PUSH1 0x40 MSTORE DUP1 SWAP3 SWAP2 SWAP1 DUP2 DUP2 MSTORE PUSH1 0x20 ADD DUP3 DUP1 SLOAD PUSH2 0x2F2 SWAP1 PUSH2 0x720 JUMP JUMPDEST DUP1 ISZERO PUSH2 0x33D JUMPI DUP1 PUSH1 0x1F LT PUSH2 0x314 JUMPI PUSH2 0x100 DUP1 DUP4 SLOAD DIV MUL DUP4 MSTORE SWAP2 PUSH1 0x20 ADD SWAP2 PUSH2 0x33D JUMP JUMPDEST DUP3 ADD SWAP2 SWAP1 PUSH0 MSTORE PUSH1 0x20 PUSH0 KECCAK256 SWAP1 JUMPDEST DUP2 SLOAD DUP2 MSTORE SWAP1 PUSH1 0x1 ADD SWAP1 PUSH1 0x20 ADD DUP1 DUP4 GT PUSH2 0x320 JUMPI DUP3 SWAP1 SUB PUSH1 0x1F AND DUP3 ADD SWAP2 JUMPDEST POP POP POP POP POP DUP2 MSTORE PUSH1 0x20 ADD PUSH1 0x1 DUP3 ADD DUP1 SLOAD PUSH2 0x356 SWAP1 PUSH2 0x720 JUMP JUMPDEST DUP1 PUSH1 0x1F ADD PUSH1 0x20 DUP1 SWAP2 DIV MUL PUSH1 0x20 ADD PUSH1 0x40 MLOAD SWAP1 DUP2 ADD PUSH1 0x40 MSTORE DUP1 SWAP3 SWAP2 SWAP1 DUP2 DUP2 MSTORE PUSH1 0x20 ADD DUP3 DUP1 SLOAD PUSH2 0x382 SWAP1 PUSH2 0x720 JUMP JUMPDEST DUP1 ISZERO PUSH2 0x3CD JUMPI DUP1 PUSH1 0x1F LT PUSH2 0x3A4 JUMPI PUSH2 0x100 DUP1 DUP4 SLOAD DIV MUL DUP4 MSTORE SWAP2 PUSH1 0x20 ADD SWAP2 PUSH2 0x3CD JUMP JUMPDEST DUP3 ADD SWAP2 SWAP1 PUSH0 MSTORE PUSH1 0x20 PUSH0 KECCAK256 SWAP1 JUMPDEST DUP2 SLOAD DUP2 MSTORE SWAP1 PUSH1 0x1 ADD SWAP1 PUSH1 0x20 ADD DUP1 DUP4 GT PUSH2 0x3B0 JUMPI DUP3 SWAP1 SUB PUSH1 0x1F AND DUP3 ADD SWAP2 JUMPDEST POP POP POP SWAP2 DUP4 MSTORE POP POP PUSH1 0x2 DUP3 ADD SLOAD PUSH1 0x1 PUSH1 0x1 PUSH1 0xA0 SHL SUB AND PUSH1 0x20 DUP1 DUP4 ADD SWAP2 SWAP1 SWAP2 MSTORE PUSH1 0x3 SWAP1 SWAP3 ADD SLOAD PUSH1 0x40 SWAP2 DUP3 ADD MSTORE DUP3 MLOAD SWAP2 DUP4 ADD MLOAD SWAP1 DUP4 ADD MLOAD PUSH1 0x60 SWAP1 SWAP4 ADD MLOAD SWAP2 SWAP10 SWAP1 SWAP9 POP SWAP2 SWAP7 POP SWAP5 POP SWAP3 POP POP POP JUMP JUMPDEST PUSH0 DUP2 DUP2 SLOAD DUP2 LT PUSH2 0x426 JUMPI PUSH0 DUP1 REVERT JUMPDEST SWAP1 PUSH0 MSTORE PUSH1 0x20 PUSH0 KECCAK256 SWAP1 PUSH1 0x4 MUL ADD PUSH0 SWAP2 POP SWAP1 POP DUP1 PUSH0 ADD DUP1 SLOAD PUSH2 0x445 SWAP1 PUSH2 0x720 JUMP JUMPDEST DUP1 PUSH1 0x1F ADD PUSH1 0x20 DUP1 SWAP2 DIV MUL PUSH1 0x20 ADD PUSH1 0x40 MLOAD SWAP1 DUP2 ADD PUSH1 0x40 MSTORE DUP1 SWAP3 SWAP2 SWAP1 DUP2 DUP2 MSTORE PUSH1 0x20 ADD DUP3 DUP1 SLOAD PUSH2 0x471 SWAP1 PUSH2 0x720 JUMP JUMPDEST DUP1 ISZERO PUSH2 0x4BC JUMPI DUP1 PUSH1 0x1F LT PUSH2 0x493 JUMPI PUSH2 0x100 DUP1 DUP4 SLOAD DIV MUL DUP4 MSTORE SWAP2 PUSH1 0x20 ADD SWAP2 PUSH2 0x4BC JUMP JUMPDEST DUP3 ADD SWAP2 SWAP1 PUSH0 MSTORE PUSH1 0x20 PUSH0 KECCAK256 SWAP1 JUMPDEST DUP2 SLOAD DUP2 MSTORE SWAP1 PUSH1 0x1 ADD SWAP1 PUSH1 0x20 ADD DUP1 DUP4 GT PUSH2 0x49F JUMPI DUP3 SWAP1 SUB PUSH1 0x1F AND DUP3 ADD SWAP2 JUMPDEST POP POP POP POP POP SWAP1 DUP1 PUSH1 0x1 ADD DUP1 SLOAD PUSH2 0x4D1 SWAP1 PUSH2 0x720 JUMP JUMPDEST DUP1 PUSH1 0x1F ADD PUSH1 0x20 DUP1 SWAP2 DIV MUL PUSH1 0x20 ADD PUSH1 0x40 MLOAD SWAP1 DUP2 ADD PUSH1 0x40 MSTORE DUP1 SWAP3 SWAP2 SWAP1 DUP2 DUP2 MSTORE PUSH1 0x20 ADD DUP3 DUP1 SLOAD PUSH2 0x4FD SWAP1 PUSH2 0x720 JUMP JUMPDEST DUP1 ISZERO PUSH2 0x548 JUMPI DUP1 PUSH1 0x1F LT PUSH2 0x51F JUMPI PUSH2 0x100 DUP1 DUP4 SLOAD DIV MUL DUP4 MSTORE SWAP2 PUSH1 0x20 ADD SWAP2 PUSH2 0x548 JUMP JUMPDEST DUP3 ADD SWAP2 SWAP1 PUSH0 MSTORE PUSH1 0x20 PUSH0 KECCAK256 SWAP1 JUMPDEST DUP2 SLOAD DUP2 MSTORE SWAP1 PUSH1 0x1 ADD SWAP1 PUSH1 0x20 ADD DUP1 DUP4 GT PUSH2 0x52B JUMPI DUP3 SWAP1 SUB PUSH1 0x1F AND DUP3 ADD SWAP2 JUMPDEST POP POP POP POP PUSH1 0x2 DUP4 ADD SLOAD PUSH1 0x3 SWAP1 SWAP4 ADD SLOAD SWAP2 SWAP3 PUSH1 0x1 PUSH1 0x1 PUSH1 0xA0 SHL SUB AND SWAP2 SWAP1 POP DUP5 JUMP JUMPDEST PUSH4 0x4E487B71 PUSH1 0xE0 SHL PUSH0 MSTORE PUSH1 0x41 PUSH1 0x4 MSTORE PUSH1 0x24 PUSH0 REVERT JUMPDEST PUSH0 DUP3 PUSH1 0x1F DUP4 ADD SLT PUSH2 0x58B JUMPI PUSH0 PUSH0 REVERT JUMPDEST DUP2 CALLDATALOAD PUSH8 0xFFFFFFFFFFFFFFFF DUP2 GT ISZERO PUSH2 0x5A5 JUMPI PUSH2 0x5A5 PUSH2 0x568 JUMP JUMPDEST PUSH1 0x40 MLOAD PUSH1 0x1F DUP3 ADD PUSH1 0x1F NOT SWAP1 DUP2 AND PUSH1 0x3F ADD AND DUP2 ADD PUSH8 0xFFFFFFFFFFFFFFFF DUP2 GT DUP3 DUP3 LT OR ISZERO PUSH2 0x5D4 JUMPI PUSH2 0x5D4 PUSH2 0x568 JUMP JUMPDEST PUSH1 0x40 MSTORE DUP2 DUP2 MSTORE DUP4 DUP3 ADD PUSH1 0x20 ADD DUP6 LT ISZERO PUSH2 0x5EB JUMPI PUSH0 PUSH0 REVERT JUMPDEST DUP2 PUSH1 0x20 DUP6 ADD PUSH1 0x20 DUP4 ADD CALLDATACOPY PUSH0 SWAP2 DUP2 ADD PUSH1 0x20 ADD SWAP2 SWAP1 SWAP2 MSTORE SWAP4 SWAP3 POP POP POP JUMP JUMPDEST PUSH0 PUSH0 PUSH1 0x40 DUP4 DUP6 SUB SLT ISZERO PUSH2 0x618 JUMPI PUSH0 PUSH0 REVERT JUMPDEST DUP3 CALLDATALOAD PUSH8 0xFFFFFFFFFFFFFFFF DUP2 GT ISZERO PUSH2 0x62E JUMPI PUSH0 PUSH0 REVERT JUMPDEST PUSH2 0x63A DUP6 DUP3 DUP7 ADD PUSH2 0x57C JUMP JUMPDEST SWAP3 POP POP PUSH1 0x20 DUP4 ADD CALLDATALOAD PUSH8 0xFFFFFFFFFFFFFFFF DUP2 GT ISZERO PUSH2 0x656 JUMPI PUSH0 PUSH0 REVERT JUMPDEST PUSH2 0x662 DUP6 DUP3 DUP7 ADD PUSH2 0x57C JUMP JUMPDEST SWAP2 POP POP SWAP3 POP SWAP3 SWAP1 POP JUMP JUMPDEST PUSH0 PUSH0 PUSH1 0x40 DUP4 DUP6 SUB SLT ISZERO PUSH2 0x67D JUMPI PUSH0 PUSH0 REVERT JUMPDEST DUP3 CALLDATALOAD SWAP2 POP PUSH1 0x20 DUP4 ADD CALLDATALOAD PUSH8 0xFFFFFFFFFFFFFFFF DUP2 GT ISZERO PUSH2 0x656 JUMPI PUSH0 PUSH0 REVERT JUMPDEST PUSH0 PUSH1 0x20 DUP3 DUP5 SUB SLT ISZERO PUSH2 0x6AA JUMPI PUSH0 PUSH0 REVERT JUMPDEST POP CALLDATALOAD SWAP2 SWAP1 POP JUMP JUMPDEST PUSH0 DUP2 MLOAD DUP1 DUP5 MSTORE DUP1 PUSH1 0x20 DUP5 ADD PUSH1 0x20 DUP7 ADD MCOPY PUSH0 PUSH1 0x20 DUP3 DUP7 ADD ADD MSTORE PUSH1 0x20 PUSH1 0x1F NOT PUSH1 0x1F DUP4 ADD AND DUP6 ADD ADD SWAP2 POP POP SWAP3 SWAP2 POP POP JUMP JUMPDEST PUSH1 0x80 DUP2 MSTORE PUSH0 PUSH2 0x6F1 PUSH1 0x80 DUP4 ADD DUP8 PUSH2 0x6B1 JUMP JUMPDEST DUP3 DUP2 SUB PUSH1 0x20 DUP5 ADD MSTORE PUSH2 0x703 DUP2 DUP8 PUSH2 0x6B1 JUMP JUMPDEST PUSH1 0x1 PUSH1 0x1 PUSH1 0xA0 SHL SUB SWAP6 SWAP1 SWAP6 AND PUSH1 0x40 DUP5 ADD MSTORE POP POP PUSH1 0x60 ADD MSTORE SWAP3 SWAP2 POP POP JUMP JUMPDEST PUSH1 0x1 DUP2 DUP2 SHR SWAP1 DUP3 AND DUP1 PUSH2 0x734 JUMPI PUSH1 0x7F DUP3 AND SWAP2 POP JUMPDEST PUSH1 0x20 DUP3 LT DUP2 SUB PUSH2 0x752 JUMPI PUSH4 0x4E487B71 PUSH1 0xE0 SHL PUSH0 MSTORE PUSH1 0x22 PUSH1 0x4 MSTORE PUSH1 0x24 PUSH0 REVERT JUMPDEST POP SWAP2 SWAP1 POP JUMP JUMPDEST PUSH1 0x1F DUP3 GT ISZERO PUSH2 0x79F JUMPI DUP1 PUSH0 MSTORE PUSH1 0x20 PUSH0 KECCAK256 PUSH1 0x1F DUP5 ADD PUSH1 0x5 SHR DUP2 ADD PUSH1 0x20 DUP6 LT ISZERO PUSH2 0x77D JUMPI POP DUP1 JUMPDEST PUSH1 0x1F DUP5 ADD PUSH1 0x5 SHR DUP3 ADD SWAP2 POP JUMPDEST DUP2 DUP2 LT ISZERO PUSH2 0x79C JUMPI PUSH0 DUP2 SSTORE PUSH1 0x1 ADD PUSH2 0x789 JUMP JUMPDEST POP POP JUMPDEST POP POP POP JUMP JUMPDEST DUP2 MLOAD PUSH8 0xFFFFFFFFFFFFFFFF DUP2 GT ISZERO PUSH2 0x7BE JUMPI PUSH2 0x7BE PUSH2 0x568 JUMP JUMPDEST PUSH2 0x7D2 DUP2 PUSH2 0x7CC DUP5 SLOAD PUSH2 0x720 JUMP JUMPDEST DUP5 PUSH2 0x758 JUMP JUMPDEST PUSH1 0x20 PUSH1 0x1F DUP3 GT PUSH1 0x1 DUP2 EQ PUSH2 0x804 JUMPI PUSH0 DUP4 ISZERO PUSH2 0x7ED JUMPI POP DUP5 DUP3 ADD MLOAD JUMPDEST PUSH0 NOT PUSH1 0x3 DUP6 SWAP1 SHL SHR NOT AND PUSH1 0x1 DUP5 SWAP1 SHL OR DUP5 SSTORE PUSH2 0x79C JUMP JUMPDEST PUSH0 DUP5 DUP2 MSTORE PUSH1 0x20 DUP2 KECCAK256 PUSH1 0x1F NOT DUP6 AND SWAP2 JUMPDEST DUP3 DUP2 LT ISZERO PUSH2 0x833 JUMPI DUP8 DUP6 ADD MLOAD DUP3 SSTORE PUSH1 0x20 SWAP5 DUP6 ADD SWAP5 PUSH1 0x1 SWAP1 SWAP3 ADD SWAP2 ADD PUSH2 0x813 JUMP JUMPDEST POP DUP5 DUP3 LT ISZERO PUSH2 0x850 JUMPI DUP7 DUP5 ADD MLOAD PUSH0 NOT PUSH1 0x3 DUP8 SWAP1 SHL PUSH1 0xF8 AND SHR NOT AND DUP2 SSTORE JUMPDEST POP POP POP POP PUSH1 0x1 SWAP1 DUP2 SHL ADD SWAP1 SSTORE POP JUMP JUMPDEST DUP2 DUP2 SUB DUP2 DUP2 GT ISZERO PUSH2 0x87E JUMPI PUSH4 0x4E487B71 PUSH1 0xE0 SHL PUSH0 MSTORE PUSH1 0x11 PUSH1 0x4 MSTORE PUSH1 0x24 PUSH0 REVERT JUMPDEST SWAP3 SWAP2 POP POP JUMP JUMPDEST PUSH1 0x40 DUP2 MSTORE PUSH0 PUSH2 0x896 PUSH1 0x40 DUP4 ADD DUP6 PUSH2 0x6B1 JUMP JUMPDEST SWAP1 POP PUSH1 0x1 DUP1 PUSH1 0xA0 SHL SUB DUP4 AND PUSH1 0x20 DUP4 ADD MSTORE SWAP4 SWAP3 POP POP POP JUMP JUMPDEST PUSH4 0x4E487B71 PUSH1 0xE0 SHL PUSH0 MSTORE PUSH1 0x32 PUSH1 0x4 MSTORE PUSH1 0x24 PUSH0 REVERT INVALID LOG2 PUSH5 0x6970667358 0x22 SLT KECCAK256 0xC MLOAD BASEFEE SUB CHAINID 0xD MSTORE STATICCALL PUSH20 0x2B39854813B6A369D5F0C00AA153567B58AE7F9C 0xD9 0xD7 XOR PUSH5 0x736F6C6343 STOP ADDMOD SAR STOP CALLER "
		},
		"gasEstimates": {
			"creation": {
				"codeDepositCost": "459000",
				"executionCost": "491",
				"totalCost": "459491"
			},
			"external": {
				"addArticle(string,string)": "infinite",
				"articles(uint256)": "infinite",
				"getArticle(uint256)": "infinite",
				"updateArticle(uint256,string)": "infinite"
			}
		},
		"methodIdentifiers": {
			"addArticle(string,string)": "6ec67ec9",
			"articles(uint256)": "edcfafe6",
			"getArticle(uint256)": "bd85d867",
			"updateArticle(uint256,string)": "8120abed"
		}
	},
	"abi": [
		{
			"anonymous": false,
			"inputs": [
				{
					"indexed": true,
					"internalType": "uint256",
					"name": "articleId",
					"type": "uint256"
				},
				{
					"indexed": false,
					"internalType": "string",
					"name": "title",
					"type": "string"
				},
				{
					"indexed": false,
					"internalType": "address",
					"name": "author",
					"type": "address"
				}
			],
			"name": "ArticleAdded",
			"type": "event"
		},
		{
			"anonymous": false,
			"inputs": [
				{
					"indexed": true,
					"internalType": "uint256",
					"name": "articleId",
					"type": "uint256"
				},
				{
					"indexed": false,
					"internalType": "string",
					"name": "newContent",
					"type": "string"
				},
				{
					"indexed": false,
					"internalType": "address",
					"name": "updater",
					"type": "address"
				}
			],
			"name": "ArticleUpdated",
			"type": "event"
		},
		{
			"inputs": [
				{
					"internalType": "string",
					"name": "_title",
					"type": "string"
				},
				{
					"internalType": "string",
					"name": "_content",
					"type": "string"
				}
			],
			"name": "addArticle",
			"outputs": [],
			"stateMutability": "nonpayable",
			"type": "function"
		},
		{
			"inputs": [
				{
					"internalType": "uint256",
					"name": "",
					"type": "uint256"
				}
			],
			"name": "articles",
			"outputs": [
				{
					"internalType": "string",
					"name": "title",
					"type": "string"
				},
				{
					"internalType": "string",
					"name": "content",
					"type": "string"
				},
				{
					"internalType": "address",
					"name": "author",
					"type": "address"
				},
				{
					"internalType": "uint256",
					"name": "timestamp",
					"type": "uint256"
				}
			],
			"stateMutability": "view",
			"type": "function"
		},
		{
			"inputs": [
				{
					"internalType": "uint256",
					"name": "_articleId",
					"type": "uint256"
				}
			],
			"name": "getArticle",
			"outputs": [
				{
					"internalType": "string",
					"name": "title",
					"type": "string"
				},
				{
					"internalType": "string",
					"name": "content",
					"type": "string"
				},
				{
					"internalType": "address",
					"name": "author",
					"type": "address"
				},
				{
					"internalType": "uint256",
					"name": "timestamp",
					"type": "uint256"
				}
			],
			"stateMutability": "view",
			"type": "function"
		},
		{
			"inputs": [
				{
					"internalType": "uint256",
					"name": "_articleId",
					"type": "uint256"
				},
				{
					"internalType": "string",
					"name": "_newContent",
					"type": "string"
				}
			],
			"name": "updateArticle",
			"outputs": [],
			"stateMutability": "nonpayable",
			"type": "function"
		}
	]
}