{
	"data": {
		"bytecode": {
			"linkReferences": {},
			"object": "6080604052348015600e575f5ffd5b506109798061001c5f395ff3fe608060405234801561000f575f5ffd5b5060043610610055575f3560e01c80630e3e5ce6146100595780637b58b93f146100755780637f54af9b1461008a578063cf43954d1461009d578063f2836670146100c1575b5f5ffd5b61006260015481565b6040519081526020015b60405180910390f35b610088610083366004610641565b6100d4565b005b610088610098366004610694565b6101a2565b6100b06100ab3660046106e4565b6102a4565b60405161006c959493929190610729565b6100b06100cf3660046106e4565b6103f0565b5f83815260208190526040902060018101546001600160a01b031633146101415760405162461bcd60e51b815260206004820152601860248201527f4e6f7420696e7370656374696f6e20696e73706563746f720000000000000000604482015260640160405180910390fd5b6002810161014f84826107fa565b5060048101805460ff191683151517905560405184907f5057b22c3179a55398923b588f607b39bec10378725e8e26eb38ce8a8f773e789061019490869086906108b5565b60405180910390a250505050565b60018054905f6101b1836108d8565b90915550506040805160a0810182528481523360208083019190915281830185905242606083015283151560808301526001545f9081529081905291909120815181906101fe90826107fa565b5060208201516001820180546001600160a01b0319166001600160a01b039092169190911790556040820151600282019061023990826107fa565b50606082015160038201556080909101516004909101805460ff19169115159190911790556001546040517ff32d124a2b0b8cb92dca5c05d53e509c15c3df2e0ca8db80e528ac65642e40cf906102979086903390879087906108fc565b60405180910390a2505050565b5f602081905290815260409020805481906102be90610776565b80601f01602080910402602001604051908101604052809291908181526020018280546102ea90610776565b80156103355780601f1061030c57610100808354040283529160200191610335565b820191905f5260205f20905b81548152906001019060200180831161031857829003601f168201915b505050600184015460028501805494956001600160a01b0390921694919350915061035f90610776565b80601f016020809104026020016040519081016040528092919081815260200182805461038b90610776565b80156103d65780601f106103ad576101008083540402835291602001916103d6565b820191905f5260205f20905b8154815290600101906020018083116103b957829003601f168201915b50505050600383015460049093015491929160ff16905085565b60605f60605f5f5f5f5f8881526020019081526020015f206040518060a00160405290815f8201805461042290610776565b80601f016020809104026020016040519081016040528092919081815260200182805461044e90610776565b80156104995780601f1061047057610100808354040283529160200191610499565b820191905f5260205f20905b81548152906001019060200180831161047c57829003601f168201915b505050918352505060018201546001600160a01b031660208201526002820180546040909201916104c990610776565b80601f01602080910402602001604051908101604052809291908181526020018280546104f590610776565b80156105405780601f1061051757610100808354040283529160200191610540565b820191905f5260205f20905b81548152906001019060200180831161052357829003601f168201915b5050509183525050600382015460208083019190915260049092015460ff161515604091820152825191830151908301516060840151608090940151929b919a509850919650945092505050565b634e487b7160e01b5f52604160045260245ffd5b5f82601f8301126105b1575f5ffd5b813567ffffffffffffffff8111156105cb576105cb61058e565b604051601f8201601f19908116603f0116810167ffffffffffffffff811182821017156105fa576105fa61058e565b604052818152838201602001851015610611575f5ffd5b816020850160208301375f918101602001919091529392505050565b8035801515811461063c575f5ffd5b919050565b5f5f5f60608486031215610653575f5ffd5b83359250602084013567ffffffffffffffff811115610670575f5ffd5b61067c868287016105a2565b92505061068b6040850161062d565b90509250925092565b5f5f5f606084860312156106a6575f5ffd5b833567ffffffffffffffff8111156106bc575f5ffd5b6106c8868287016105a2565b935050602084013567ffffffffffffffff811115610670575f5ffd5b5f602082840312156106f4575f5ffd5b5035919050565b5f81518084528060208401602086015e5f602082860101526020601f19601f83011685010191505092915050565b60a081525f61073b60a08301886106fb565b6001600160a01b0387166020840152828103604084015261075c81876106fb565b606084019590955250509015156080909101529392505050565b600181811c9082168061078a57607f821691505b6020821081036107a857634e487b7160e01b5f52602260045260245ffd5b50919050565b601f8211156107f557805f5260205f20601f840160051c810160208510156107d35750805b601f840160051c820191505b818110156107f2575f81556001016107df565b50505b505050565b815167ffffffffffffffff8111156108145761081461058e565b610828816108228454610776565b846107ae565b6020601f82116001811461085a575f83156108435750848201515b5f19600385901b1c1916600184901b1784556107f2565b5f84815260208120601f198516915b828110156108895787850151825560209485019460019092019101610869565b50848210156108a657868401515f19600387901b60f8161c191681555b50505050600190811b01905550565b604081525f6108c760408301856106fb565b905082151560208301529392505050565b5f600182016108f557634e487b7160e01b5f52601160045260245ffd5b5060010190565b608081525f61090e60808301876106fb565b6001600160a01b0386166020840152828103604084015261092f81866106fb565b91505082151560608301529594505050505056fea2646970667358221220b91ecb4b398ae664839cc06fce9c4d6d84f226de922c5ad32d5bc7dfbfdc67c264736f6c634300081d0033",
			"opcodes": "PUSH1 0x80 PUSH1 0x40 MSTORE CALLVALUE DUP1 ISZERO PUSH1 0xE JUMPI PUSH0 PUSH0 REVERT JUMPDEST POP PUSH2 0x979 DUP1 PUSH2 0x1C PUSH0 CODECOPY PUSH0 RETURN INVALID PUSH1 0x80 PUSH1 0x40 MSTORE CALLVALUE DUP1 ISZERO PUSH2 0xF JUMPI PUSH0 PUSH0 REVERT JUMPDEST POP PUSH1 0x4 CALLDATASIZE LT PUSH2 0x55 JUMPI PUSH0 CALLDATALOAD PUSH1 0xE0 SHR DUP1 PUSH4 0xE3E5CE6 EQ PUSH2 0x59 JUMPI DUP1 PUSH4 0x7B58B93F EQ PUSH2 0x75 JUMPI DUP1 PUSH4 0x7F54AF9B EQ PUSH2 0x8A JUMPI DUP1 PUSH4 0xCF43954D EQ PUSH2 0x9D JUMPI DUP1 PUSH4 0xF2836670 EQ PUSH2 0xC1 JUMPI JUMPDEST PUSH0 PUSH0 REVERT JUMPDEST PUSH2 0x62 PUSH1 0x1 SLOAD DUP2 JUMP JUMPDEST PUSH1 0x40 MLOAD SWAP1 DUP2 MSTORE PUSH1 0x20 ADD JUMPDEST PUSH1 0x40 MLOAD DUP1 SWAP2 SUB SWAP1 RETURN JUMPDEST PUSH2 0x88 PUSH2 0x83 CALLDATASIZE PUSH1 0x4 PUSH2 0x641 JUMP JUMPDEST PUSH2 0xD4 JUMP JUMPDEST STOP JUMPDEST PUSH2 0x88 PUSH2 0x98 CALLDATASIZE PUSH1 0x4 PUSH2 0x694 JUMP JUMPDEST PUSH2 0x1A2 JUMP JUMPDEST PUSH2 0xB0 PUSH2 0xAB CALLDATASIZE PUSH1 0x4 PUSH2 0x6E4 JUMP JUMPDEST PUSH2 0x2A4 JUMP JUMPDEST PUSH1 0x40 MLOAD PUSH2 0x6C SWAP6 SWAP5 SWAP4 SWAP3 SWAP2 SWAP1 PUSH2 0x729 JUMP JUMPDEST PUSH2 0xB0 PUSH2 0xCF CALLDATASIZE PUSH1 0x4 PUSH2 0x6E4 JUMP JUMPDEST PUSH2 0x3F0 JUMP JUMPDEST PUSH0 DUP4 DUP2 MSTORE PUSH1 0x20 DUP2 SWAP1 MSTORE PUSH1 0x40 SWAP1 KECCAK256 PUSH1 0x1 DUP2 ADD SLOAD PUSH1 0x1 PUSH1 0x1 PUSH1 0xA0 SHL SUB AND CALLER EQ PUSH2 0x141 JUMPI PUSH1 0x40 MLOAD PUSH3 0x461BCD PUSH1 0xE5 SHL DUP2 MSTORE PUSH1 0x20 PUSH1 0x4 DUP3 ADD MSTORE PUSH1 0x18 PUSH1 0x24 DUP3 ADD MSTORE PUSH32 0x4E6F7420696E7370656374696F6E20696E73706563746F720000000000000000 PUSH1 0x44 DUP3 ADD MSTORE PUSH1 0x64 ADD PUSH1 0x40 MLOAD DUP1 SWAP2 SUB SWAP1 REVERT JUMPDEST PUSH1 0x2 DUP2 ADD PUSH2 0x14F DUP5 DUP3 PUSH2 0x7FA JUMP JUMPDEST POP PUSH1 0x4 DUP2 ADD DUP1 SLOAD PUSH1 0xFF NOT AND DUP4 ISZERO ISZERO OR SWAP1 SSTORE PUSH1 0x40 MLOAD DUP5 SWAP1 PUSH32 0x5057B22C3179A55398923B588F607B39BEC10378725E8E26EB38CE8A8F773E78 SWAP1 PUSH2 0x194 SWAP1 DUP7 SWAP1 DUP7 SWAP1 PUSH2 0x8B5 JUMP JUMPDEST PUSH1 0x40 MLOAD DUP1 SWAP2 SUB SWAP1 LOG2 POP POP POP POP JUMP JUMPDEST PUSH1 0x1 DUP1 SLOAD SWAP1 PUSH0 PUSH2 0x1B1 DUP4 PUSH2 0x8D8 JUMP JUMPDEST SWAP1 SWAP2 SSTORE POP POP PUSH1 0x40 DUP1 MLOAD PUSH1 0xA0 DUP2 ADD DUP3 MSTORE DUP5 DUP2 MSTORE CALLER PUSH1 0x20 DUP1 DUP4 ADD SWAP2 SWAP1 SWAP2 MSTORE DUP2 DUP4 ADD DUP6 SWAP1 MSTORE TIMESTAMP PUSH1 0x60 DUP4 ADD MSTORE DUP4 ISZERO ISZERO PUSH1 0x80 DUP4 ADD MSTORE PUSH1 0x1 SLOAD PUSH0 SWAP1 DUP2 MSTORE SWAP1 DUP2 SWAP1 MSTORE SWAP2 SWAP1 SWAP2 KECCAK256 DUP2 MLOAD DUP2 SWAP1 PUSH2 0x1FE SWAP1 DUP3 PUSH2 0x7FA JUMP JUMPDEST POP PUSH1 0x20 DUP3 ADD MLOAD PUSH1 0x1 DUP3 ADD DUP1 SLOAD PUSH1 0x1 PUSH1 0x1 PUSH1 0xA0 SHL SUB NOT AND PUSH1 0x1 PUSH1 0x1 PUSH1 0xA0 SHL SUB SWAP1 SWAP3 AND SWAP2 SWAP1 SWAP2 OR SWAP1 SSTORE PUSH1 0x40 DUP3 ADD MLOAD PUSH1 0x2 DUP3 ADD SWAP1 PUSH2 0x239 SWAP1 DUP3 PUSH2 0x7FA JUMP JUMPDEST POP PUSH1 0x60 DUP3 ADD MLOAD PUSH1 0x3 DUP3 ADD SSTORE PUSH1 0x80 SWAP1 SWAP2 ADD MLOAD PUSH1 0x4 SWAP1 SWAP2 ADD DUP1 SLOAD PUSH1 0xFF NOT AND SWAP2 ISZERO ISZERO SWAP2 SWAP1 SWAP2 OR SWAP1 SSTORE PUSH1 0x1 SLOAD PUSH1 0x40 MLOAD PUSH32 0xF32D124A2B0B8CB92DCA5C05D53E509C15C3DF2E0CA8DB80E528AC65642E40CF SWAP1 PUSH2 0x297 SWAP1 DUP7 SWAP1 CALLER SWAP1 DUP8 SWAP1 DUP8 SWAP1 PUSH2 0x8FC JUMP JUMPDEST PUSH1 0x40 MLOAD DUP1 SWAP2 SUB SWAP1 LOG2 POP POP POP JUMP JUMPDEST PUSH0 PUSH1 0x20 DUP2 SWAP1 MSTORE SWAP1 DUP2 MSTORE PUSH1 0x40 SWAP1 KECCAK256 DUP1 SLOAD DUP2 SWAP1 PUSH2 0x2BE SWAP1 PUSH2 0x776 JUMP JUMPDEST DUP1 PUSH1 0x1F ADD PUSH1 0x20 DUP1 SWAP2 DIV MUL PUSH1 0x20 ADD PUSH1 0x40 MLOAD SWAP1 DUP2 ADD PUSH1 0x40 MSTORE DUP1 SWAP3 SWAP2 SWAP1 DUP2 DUP2 MSTORE PUSH1 0x20 ADD DUP3 DUP1 SLOAD PUSH2 0x2EA SWAP1 PUSH2 0x776 JUMP JUMPDEST DUP1 ISZERO PUSH2 0x335 JUMPI DUP1 PUSH1 0x1F LT PUSH2 0x30C JUMPI PUSH2 0x100 DUP1 DUP4 SLOAD DIV MUL DUP4 MSTORE SWAP2 PUSH1 0x20 ADD SWAP2 PUSH2 0x335 JUMP JUMPDEST DUP3 ADD SWAP2 SWAP1 PUSH0 MSTORE PUSH1 0x20 PUSH0 KECCAK256 SWAP1 JUMPDEST DUP2 SLOAD DUP2 MSTORE SWAP1 PUSH1 0x1 ADD SWAP1 PUSH1 0x20 ADD DUP1 DUP4 GT PUSH2 0x318 JUMPI DUP3 SWAP1 SUB PUSH1 0x1F AND DUP3 ADD SWAP2 JUMPDEST POP POP POP PUSH1 0x1 DUP5 ADD SLOAD PUSH1 0x2 DUP6 ADD DUP1 SLOAD SWAP5 SWAP6 PUSH1 0x1 PUSH1 0x1 PUSH1 0xA0 SHL SUB SWAP1 SWAP3 AND SWAP5 SWAP2 SWAP4 POP SWAP2 POP PUSH2 0x35F SWAP1 PUSH2 0x776 JUMP JUMPDEST DUP1 PUSH1 0x1F ADD PUSH1 0x20 DUP1 SWAP2 DIV MUL PUSH1 0x20 ADD PUSH1 0x40 MLOAD SWAP1 DUP2 ADD PUSH1 0x40 MSTORE DUP1 SWAP3 SWAP2 SWAP1 DUP2 DUP2 MSTORE PUSH1 0x20 ADD DUP3 DUP1 SLOAD PUSH2 0x38B SWAP1 PUSH2 0x776 JUMP JUMPDEST DUP1 ISZERO PUSH2 0x3D6 JUMPI DUP1 PUSH1 0x1F LT PUSH2 0x3AD JUMPI PUSH2 0x100 DUP1 DUP4 SLOAD DIV MUL DUP4 MSTORE SWAP2 PUSH1 0x20 ADD SWAP2 PUSH2 0x3D6 JUMP JUMPDEST DUP3 ADD SWAP2 SWAP1 PUSH0 MSTORE PUSH1 0x20 PUSH0 KECCAK256 SWAP1 JUMPDEST DUP2 SLOAD DUP2 MSTORE SWAP1 PUSH1 0x1 ADD SWAP1 PUSH1 0x20 ADD DUP1 DUP4 GT PUSH2 0x3B9 JUMPI DUP3 SWAP1 SUB PUSH1 0x1F AND DUP3 ADD SWAP2 JUMPDEST POP POP POP POP PUSH1 0x3 DUP4 ADD SLOAD PUSH1 0x4 SWAP1 SWAP4 ADD SLOAD SWAP2 SWAP3 SWAP2 PUSH1 0xFF AND SWAP1 POP DUP6 JUMP JUMPDEST PUSH1 0x60 PUSH0 PUSH1 0x60 PUSH0 PUSH0 PUSH0 PUSH0 PUSH0 DUP9 DUP2 MSTORE PUSH1 0x20 ADD SWAP1 DUP2 MSTORE PUSH1 0x20 ADD PUSH0 KECCAK256 PUSH1 0x40 MLOAD DUP1 PUSH1 0xA0 ADD PUSH1 0x40 MSTORE SWAP1 DUP2 PUSH0 DUP3 ADD DUP1 SLOAD PUSH2 0x422 SWAP1 PUSH2 0x776 JUMP JUMPDEST DUP1 PUSH1 0x1F ADD PUSH1 0x20 DUP1 SWAP2 DIV MUL PUSH1 0x20 ADD PUSH1 0x40 MLOAD SWAP1 DUP2 ADD PUSH1 0x40 MSTORE DUP1 SWAP3 SWAP2 SWAP1 DUP2 DUP2 MSTORE PUSH1 0x20 ADD DUP3 DUP1 SLOAD PUSH2 0x44E SWAP1 PUSH2 0x776 JUMP JUMPDEST DUP1 ISZERO PUSH2 0x499 JUMPI DUP1 PUSH1 0x1F LT PUSH2 0x470 JUMPI PUSH2 0x100 DUP1 DUP4 SLOAD DIV MUL DUP4 MSTORE SWAP2 PUSH1 0x20 ADD SWAP2 PUSH2 0x499 JUMP JUMPDEST DUP3 ADD SWAP2 SWAP1 PUSH0 MSTORE PUSH1 0x20 PUSH0 KECCAK256 SWAP1 JUMPDEST DUP2 SLOAD DUP2 MSTORE SWAP1 PUSH1 0x1 ADD SWAP1 PUSH1 0x20 ADD DUP1 DUP4 GT PUSH2 0x47C JUMPI DUP3 SWAP1 SUB PUSH1 0x1F AND DUP3 ADD SWAP2 JUMPDEST POP POP POP SWAP2 DUP4 MSTORE POP POP PUSH1 0x1 DUP3 ADD SLOAD PUSH1 0x1 PUSH1 0x1 PUSH1 0xA0 SHL SUB AND PUSH1 0x20 DUP3 ADD MSTORE PUSH1 0x2 DUP3 ADD DUP1 SLOAD PUSH1 0x40 SWAP1 SWAP3 ADD SWAP2 PUSH2 0x4C9 SWAP1 PUSH2 0x776 JUMP JUMPDEST DUP1 PUSH1 0x1F ADD PUSH1 0x20 DUP1 SWAP2 DIV MUL PUSH1 0x20 ADD PUSH1 0x40 MLOAD SWAP1 DUP2 ADD PUSH1 0x40 MSTORE DUP1 SWAP3 SWAP2 SWAP1 DUP2 DUP2 MSTORE PUSH1 0x20 ADD DUP3 DUP1 SLOAD PUSH2 0x4F5 SWAP1 PUSH2 0x776 JUMP JUMPDEST DUP1 ISZERO PUSH2 0x540 JUMPI DUP1 PUSH1 0x1F LT PUSH2 0x517 JUMPI PUSH2 0x100 DUP1 DUP4 SLOAD DIV MUL DUP4 MSTORE SWAP2 PUSH1 0x20 ADD SWAP2 PUSH2 0x540 JUMP JUMPDEST DUP3 ADD SWAP2 SWAP1 PUSH0 MSTORE PUSH1 0x20 PUSH0 KECCAK256 SWAP1 JUMPDEST DUP2 SLOAD DUP2 MSTORE SWAP1 PUSH1 0x1 ADD SWAP1 PUSH1 0x20 ADD DUP1 DUP4 GT PUSH2 0x523 JUMPI DUP3 SWAP1 SUB PUSH1 0x1F AND DUP3 ADD SWAP2 JUMPDEST POP POP POP SWAP2 DUP4 MSTORE POP POP PUSH1 0x3 DUP3 ADD SLOAD PUSH1 0x20 DUP1 DUP4 ADD SWAP2 SWAP1 SWAP2 MSTORE PUSH1 0x4 SWAP1 SWAP3 ADD SLOAD PUSH1 0xFF AND ISZERO ISZERO PUSH1 0x40 SWAP2 DUP3 ADD MSTORE DUP3 MLOAD SWAP2 DUP4 ADD MLOAD SWAP1 DUP4 ADD MLOAD PUSH1 0x60 DUP5 ADD MLOAD PUSH1 0x80 SWAP1 SWAP5 ADD MLOAD SWAP3 SWAP12 SWAP2 SWAP11 POP SWAP9 POP SWAP2 SWAP7 POP SWAP5 POP SWAP3 POP POP POP JUMP JUMPDEST PUSH4 0x4E487B71 PUSH1 0xE0 SHL PUSH0 MSTORE PUSH1 0x41 PUSH1 0x4 MSTORE PUSH1 0x24 PUSH0 REVERT JUMPDEST PUSH0 DUP3 PUSH1 0x1F DUP4 ADD SLT PUSH2 0x5B1 JUMPI PUSH0 PUSH0 REVERT JUMPDEST DUP2 CALLDATALOAD PUSH8 0xFFFFFFFFFFFFFFFF DUP2 GT ISZERO PUSH2 0x5CB JUMPI PUSH2 0x5CB PUSH2 0x58E JUMP JUMPDEST PUSH1 0x40 MLOAD PUSH1 0x1F DUP3 ADD PUSH1 0x1F NOT SWAP1 DUP2 AND PUSH1 0x3F ADD AND DUP2 ADD PUSH8 0xFFFFFFFFFFFFFFFF DUP2 GT DUP3 DUP3 LT OR ISZERO PUSH2 0x5FA JUMPI PUSH2 0x5FA PUSH2 0x58E JUMP JUMPDEST PUSH1 0x40 MSTORE DUP2 DUP2 MSTORE DUP4 DUP3 ADD PUSH1 0x20 ADD DUP6 LT ISZERO PUSH2 0x611 JUMPI PUSH0 PUSH0 REVERT JUMPDEST DUP2 PUSH1 0x20 DUP6 ADD PUSH1 0x20 DUP4 ADD CALLDATACOPY PUSH0 SWAP2 DUP2 ADD PUSH1 0x20 ADD SWAP2 SWAP1 SWAP2 MSTORE SWAP4 SWAP3 POP POP POP JUMP JUMPDEST DUP1 CALLDATALOAD DUP1 ISZERO ISZERO DUP2 EQ PUSH2 0x63C JUMPI PUSH0 PUSH0 REVERT JUMPDEST SWAP2 SWAP1 POP JUMP JUMPDEST PUSH0 PUSH0 PUSH0 PUSH1 0x60 DUP5 DUP7 SUB SLT ISZERO PUSH2 0x653 JUMPI PUSH0 PUSH0 REVERT JUMPDEST DUP4 CALLDATALOAD SWAP3 POP PUSH1 0x20 DUP5 ADD CALLDATALOAD PUSH8 0xFFFFFFFFFFFFFFFF DUP2 GT ISZERO PUSH2 0x670 JUMPI PUSH0 PUSH0 REVERT JUMPDEST PUSH2 0x67C DUP7 DUP3 DUP8 ADD PUSH2 0x5A2 JUMP JUMPDEST SWAP3 POP POP PUSH2 0x68B PUSH1 0x40 DUP6 ADD PUSH2 0x62D JUMP JUMPDEST SWAP1 POP SWAP3 POP SWAP3 POP SWAP3 JUMP JUMPDEST PUSH0 PUSH0 PUSH0 PUSH1 0x60 DUP5 DUP7 SUB SLT ISZERO PUSH2 0x6A6 JUMPI PUSH0 PUSH0 REVERT JUMPDEST DUP4 CALLDATALOAD PUSH8 0xFFFFFFFFFFFFFFFF DUP2 GT ISZERO PUSH2 0x6BC JUMPI PUSH0 PUSH0 REVERT JUMPDEST PUSH2 0x6C8 DUP7 DUP3 DUP8 ADD PUSH2 0x5A2 JUMP JUMPDEST SWAP4 POP POP PUSH1 0x20 DUP5 ADD CALLDATALOAD PUSH8 0xFFFFFFFFFFFFFFFF DUP2 GT ISZERO PUSH2 0x670 JUMPI PUSH0 PUSH0 REVERT JUMPDEST PUSH0 PUSH1 0x20 DUP3 DUP5 SUB SLT ISZERO PUSH2 0x6F4 JUMPI PUSH0 PUSH0 REVERT JUMPDEST POP CALLDATALOAD SWAP2 SWAP1 POP JUMP JUMPDEST PUSH0 DUP2 MLOAD DUP1 DUP5 MSTORE DUP1 PUSH1 0x20 DUP5 ADD PUSH1 0x20 DUP7 ADD MCOPY PUSH0 PUSH1 0x20 DUP3 DUP7 ADD ADD MSTORE PUSH1 0x20 PUSH1 0x1F NOT PUSH1 0x1F DUP4 ADD AND DUP6 ADD ADD SWAP2 POP POP SWAP3 SWAP2 POP POP JUMP JUMPDEST PUSH1 0xA0 DUP2 MSTORE PUSH0 PUSH2 0x73B PUSH1 0xA0 DUP4 ADD DUP9 PUSH2 0x6FB JUMP JUMPDEST PUSH1 0x1 PUSH1 0x1 PUSH1 0xA0 SHL SUB DUP8 AND PUSH1 0x20 DUP5 ADD MSTORE DUP3 DUP2 SUB PUSH1 0x40 DUP5 ADD MSTORE PUSH2 0x75C DUP2 DUP8 PUSH2 0x6FB JUMP JUMPDEST PUSH1 0x60 DUP5 ADD SWAP6 SWAP1 SWAP6 MSTORE POP POP SWAP1 ISZERO ISZERO PUSH1 0x80 SWAP1 SWAP2 ADD MSTORE SWAP4 SWAP3 POP POP POP JUMP JUMPDEST PUSH1 0x1 DUP2 DUP2 SHR SWAP1 DUP3 AND DUP1 PUSH2 0x78A JUMPI PUSH1 0x7F DUP3 AND SWAP2 POP JUMPDEST PUSH1 0x20 DUP3 LT DUP2 SUB PUSH2 0x7A8 JUMPI PUSH4 0x4E487B71 PUSH1 0xE0 SHL PUSH0 MSTORE PUSH1 0x22 PUSH1 0x4 MSTORE PUSH1 0x24 PUSH0 REVERT JUMPDEST POP SWAP2 SWAP1 POP JUMP JUMPDEST PUSH1 0x1F DUP3 GT ISZERO PUSH2 0x7F5 JUMPI DUP1 PUSH0 MSTORE PUSH1 0x20 PUSH0 KECCAK256 PUSH1 0x1F DUP5 ADD PUSH1 0x5 SHR DUP2 ADD PUSH1 0x20 DUP6 LT ISZERO PUSH2 0x7D3 JUMPI POP DUP1 JUMPDEST PUSH1 0x1F DUP5 ADD PUSH1 0x5 SHR DUP3 ADD SWAP2 POP JUMPDEST DUP2 DUP2 LT ISZERO PUSH2 0x7F2 JUMPI PUSH0 DUP2 SSTORE PUSH1 0x1 ADD PUSH2 0x7DF JUMP JUMPDEST POP POP JUMPDEST POP POP POP JUMP JUMPDEST DUP2 MLOAD PUSH8 0xFFFFFFFFFFFFFFFF DUP2 GT ISZERO PUSH2 0x814 JUMPI PUSH2 0x814 PUSH2 0x58E JUMP JUMPDEST PUSH2 0x828 DUP2 PUSH2 0x822 DUP5 SLOAD PUSH2 0x776 JUMP JUMPDEST DUP5 PUSH2 0x7AE JUMP JUMPDEST PUSH1 0x20 PUSH1 0x1F DUP3 GT PUSH1 0x1 DUP2 EQ PUSH2 0x85A JUMPI PUSH0 DUP4 ISZERO PUSH2 0x843 JUMPI POP DUP5 DUP3 ADD MLOAD JUMPDEST PUSH0 NOT PUSH1 0x3 DUP6 SWAP1 SHL SHR NOT AND PUSH1 0x1 DUP5 SWAP1 SHL OR DUP5 SSTORE PUSH2 0x7F2 JUMP JUMPDEST PUSH0 DUP5 DUP2 MSTORE PUSH1 0x20 DUP2 KECCAK256 PUSH1 0x1F NOT DUP6 AND SWAP2 JUMPDEST DUP3 DUP2 LT ISZERO PUSH2 0x889 JUMPI DUP8 DUP6 ADD MLOAD DUP3 SSTORE PUSH1 0x20 SWAP5 DUP6 ADD SWAP5 PUSH1 0x1 SWAP1 SWAP3 ADD SWAP2 ADD PUSH2 0x869 JUMP JUMPDEST POP DUP5 DUP3 LT ISZERO PUSH2 0x8A6 JUMPI DUP7 DUP5 ADD MLOAD PUSH0 NOT PUSH1 0x3 DUP8 SWAP1 SHL PUSH1 0xF8 AND SHR NOT AND DUP2 SSTORE JUMPDEST POP POP POP POP PUSH1 0x1 SWAP1 DUP2 SHL ADD SWAP1 SSTORE POP JUMP JUMPDEST PUSH1 0x40 DUP2 MSTORE PUSH0 PUSH2 0x8C7 PUSH1 0x40 DUP4 ADD DUP6 PUSH2 0x6FB JUMP JUMPDEST SWAP1 POP DUP3 ISZERO ISZERO PUSH1 0x20 DUP4 ADD MSTORE SWAP4 SWAP3 POP POP POP JUMP JUMPDEST PUSH0 PUSH1 0x1 DUP3 ADD PUSH2 0x8F5 JUMPI PUSH4 0x4E487B71 PUSH1 0xE0 SHL PUSH0 MSTORE PUSH1 0x11 PUSH1 0x4 MSTORE PUSH1 0x24 PUSH0 REVERT JUMPDEST POP PUSH1 0x1 ADD SWAP1 JUMP JUMPDEST PUSH1 0x80 DUP2 MSTORE PUSH0 PUSH2 0x90E PUSH1 0x80 DUP4 ADD DUP8 PUSH2 0x6FB JUMP JUMPDEST PUSH1 0x1 PUSH1 0x1 PUSH1 0xA0 SHL SUB DUP7 AND PUSH1 0x20 DUP5 ADD MSTORE DUP3 DUP2 SUB PUSH1 0x40 DUP5 ADD MSTORE PUSH2 0x92F DUP2 DUP7 PUSH2 0x6FB JUMP JUMPDEST SWAP2 POP POP DUP3 ISZERO ISZERO PUSH1 0x60 DUP4 ADD MSTORE SWAP6 SWAP5 POP POP POP POP POP JUMP INVALID LOG2 PUSH5 0x6970667358 0x22 SLT KECCAK256 0xB9 0x1E 0xCB 0x4B CODECOPY DUP11 DUPN 0x64 DUP4 SWAP13 0xC0 PUSH16 0xCE9C4D6D84F226DE922C5AD32D5BC7DF 0xBF 0xDC PUSH8 0xC264736F6C634300 ADDMOD SAR STOP CALLER "
		},
		"gasEstimates": {
			"creation": {
				"codeDepositCost": "485000",
				"executionCost": "516",
				"totalCost": "485516"
			},
			"external": {
				"getInspection(uint256)": "infinite",
				"inspectionCount()": "2261",
				"inspections(uint256)": "infinite",
				"performInspection(string,string,bool)": "infinite",
				"updateInspectionResult(uint256,string,bool)": "infinite"
			}
		},
		"methodIdentifiers": {
			"getInspection(uint256)": "f2836670",
			"inspectionCount()": "0e3e5ce6",
			"inspections(uint256)": "cf43954d",
			"performInspection(string,string,bool)": "7f54af9b",
			"updateInspectionResult(uint256,string,bool)": "7b58b93f"
		}
	},
	"abi": [
		{
			"anonymous": false,
			"inputs": [
				{
					"indexed": true,
					"internalType": "uint256",
					"name": "inspectionId",
					"type": "uint256"
				},
				{
					"indexed": false,
					"internalType": "string",
					"name": "productName",
					"type": "string"
				},
				{
					"indexed": false,
					"internalType": "address",
					"name": "inspector",
					"type": "address"
				},
				{
					"indexed": false,
					"internalType": "string",
					"name": "result",
					"type": "string"
				},
				{
					"indexed": false,
					"internalType": "bool",
					"name": "passed",
					"type": "bool"
				}
			],
			"name": "InspectionPerformed",
			"type": "event"
		},
		{
			"anonymous": false,
			"inputs": [
				{
					"indexed": true,
					"internalType": "uint256",
					"name": "inspectionId",
					"type": "uint256"
				},
				{
					"indexed": false,
					"internalType": "string",
					"name": "newResult",
					"type": "string"
				},
				{
					"indexed": false,
					"internalType": "bool",
					"name": "newPassed",
					"type": "bool"
				}
			],
			"name": "InspectionResultUpdated",
			"type": "event"
		},
		{
			"inputs": [
				{
					"internalType": "uint256",
					"name": "_inspectionId",
					"type": "uint256"
				}
			],
			"name": "getInspection",
			"outputs": [
				{
					"internalType": "string",
					"name": "productName",
					"type": "string"
				},
				{
					"internalType": "address",
					"name": "inspector",
					"type": "address"
				},
				{
					"internalType": "string",
					"name": "result",
					"type": "string"
				},
				{
					"internalType": "uint256",
					"name": "inspectionDate",
					"type": "uint256"
				},
				{
					"internalType": "bool",
					"name": "passed",
					"type": "bool"
				}
			],
			"stateMutability": "view",
			"type": "function"
		},
		{
			"inputs": [],
			"name": "inspectionCount",
			"outputs": [
				{
					"internalType": "uint256",
					"name": "",
					"type": "uint256"
				}
			],
			"stateMutability": "view",
			"type": "function"
		},
		{
			"inputs": [
				{
					"internalType": "uint256",
					"name": "",
					"type": "uint256"
				}
			],
			"name": "inspections",
			"outputs": [
				{
					"internalType": "string",
					"name": "productName",
					"type": "string"
				},
				{
					"internalType": "address",
					"name": "inspector",
					"type": "address"
				},
				{
					"internalType": "string",
					"name": "result",
					"type": "string"
				},
				{
					"internalType": "uint256",
					"name": "inspectionDate",
					"type": "uint256"
				},
				{
					"internalType": "bool",
					"name": "passed",
					"type": "bool"
				}
			],
			"stateMutability": "view",
			"type": "function"
		},
		{
			"inputs": [
				{
					"internalType": "string",
					"name": "_productName",
					"type": "string"
				},
				{
					"internalType": "string",
					"name": "_result",
					"type": "string"
				},
				{
					"internalType": "bool",
					"name": "_passed",
					"type": "bool"
				}
			],
			"name": "performInspection",
			"outputs": [],
			"stateMutability": "nonpayable",
			"type": "function"
		},
		{
			"inputs": [
				{
					"internalType": "uint256",
					"name": "_inspectionId",
					"type": "uint256"
				},
				{
					"internalType": "string",
					"name": "_newResult",
					"type": "string"
				},
				{
					"internalType": "bool",
					"name": "_newPassed",
					"type": "bool"
				}
			],
			"name": "updateInspectionResult",
			"outputs": [],
			"stateMutability": "nonpayable",
			"type": "function"
		}
	]
}